{
  "contractName": "ErContract",
  "abi": [
    {
      "inputs": [
        {
          "internalType": "uint256",
          "name": "_totalarea",
          "type": "uint256"
        },
        {
          "internalType": "string",
          "name": "_name",
          "type": "string"
        },
        {
          "internalType": "string",
          "name": "_symbol",
          "type": "string"
        },
        {
          "internalType": "uint8",
          "name": "_divisions",
          "type": "uint8"
        }
      ],
      "stateMutability": "nonpayable",
      "type": "constructor"
    },
    {
      "anonymous": false,
      "inputs": [
        {
          "indexed": true,
          "internalType": "address",
          "name": "from",
          "type": "address"
        },
        {
          "indexed": true,
          "internalType": "address",
          "name": "to",
          "type": "address"
        },
        {
          "indexed": false,
          "internalType": "uint256",
          "name": "value",
          "type": "uint256"
        }
      ],
      "name": "Transfer",
      "type": "event"
    },
    {
      "anonymous": false,
      "inputs": [
        {
          "indexed": false,
          "internalType": "string",
          "name": "",
          "type": "string"
        },
        {
          "indexed": false,
          "internalType": "uint256",
          "name": "",
          "type": "uint256"
        }
      ],
      "name": "lockfunds",
      "type": "event"
    },
    {
      "anonymous": false,
      "inputs": [
        {
          "indexed": false,
          "internalType": "string",
          "name": "",
          "type": "string"
        }
      ],
      "name": "unlockedfunds",
      "type": "event"
    },
    {
      "anonymous": false,
      "inputs": [
        {
          "indexed": true,
          "internalType": "address",
          "name": "from",
          "type": "address"
        },
        {
          "indexed": false,
          "internalType": "uint256",
          "name": "amount",
          "type": "uint256"
        }
      ],
      "name": "withdraw",
      "type": "event"
    },
    {
      "inputs": [
        {
          "internalType": "address",
          "name": "",
          "type": "address"
        }
      ],
      "name": "balances",
      "outputs": [
        {
          "internalType": "uint256",
          "name": "",
          "type": "uint256"
        }
      ],
      "stateMutability": "view",
      "type": "function"
    },
    {
      "inputs": [],
      "name": "circulationsupply",
      "outputs": [
        {
          "internalType": "uint256",
          "name": "",
          "type": "uint256"
        }
      ],
      "stateMutability": "view",
      "type": "function"
    },
    {
      "inputs": [],
      "name": "daowallet",
      "outputs": [
        {
          "internalType": "address",
          "name": "",
          "type": "address"
        }
      ],
      "stateMutability": "view",
      "type": "function"
    },
    {
      "inputs": [],
      "name": "decimals",
      "outputs": [
        {
          "internalType": "uint8",
          "name": "",
          "type": "uint8"
        }
      ],
      "stateMutability": "view",
      "type": "function"
    },
    {
      "inputs": [],
      "name": "name",
      "outputs": [
        {
          "internalType": "string",
          "name": "",
          "type": "string"
        }
      ],
      "stateMutability": "view",
      "type": "function"
    },
    {
      "inputs": [],
      "name": "symbol",
      "outputs": [
        {
          "internalType": "string",
          "name": "",
          "type": "string"
        }
      ],
      "stateMutability": "view",
      "type": "function"
    },
    {
      "inputs": [],
      "name": "timelockcontractaddress",
      "outputs": [
        {
          "internalType": "address",
          "name": "",
          "type": "address"
        }
      ],
      "stateMutability": "view",
      "type": "function"
    },
    {
      "inputs": [],
      "name": "totalarea",
      "outputs": [
        {
          "internalType": "uint256",
          "name": "",
          "type": "uint256"
        }
      ],
      "stateMutability": "view",
      "type": "function"
    },
    {
      "inputs": [],
      "name": "totaltokens",
      "outputs": [
        {
          "internalType": "uint256",
          "name": "",
          "type": "uint256"
        }
      ],
      "stateMutability": "view",
      "type": "function"
    },
    {
      "inputs": [
        {
          "internalType": "address",
          "name": "_adminAddress",
          "type": "address"
        }
      ],
      "name": "addAdmin",
      "outputs": [],
      "stateMutability": "nonpayable",
      "type": "function"
    },
    {
      "inputs": [
        {
          "internalType": "address",
          "name": "_adminAddress",
          "type": "address"
        }
      ],
      "name": "removeAdmin",
      "outputs": [],
      "stateMutability": "nonpayable",
      "type": "function"
    },
    {
      "inputs": [
        {
          "internalType": "string",
          "name": "_name",
          "type": "string"
        },
        {
          "internalType": "string",
          "name": "_additionaldocsurl",
          "type": "string"
        }
      ],
      "name": "addDocument",
      "outputs": [],
      "stateMutability": "nonpayable",
      "type": "function"
    },
    {
      "inputs": [
        {
          "internalType": "string",
          "name": "_name",
          "type": "string"
        }
      ],
      "name": "getDocument",
      "outputs": [
        {
          "internalType": "string",
          "name": "",
          "type": "string"
        },
        {
          "internalType": "uint256",
          "name": "",
          "type": "uint256"
        }
      ],
      "stateMutability": "view",
      "type": "function"
    },
    {
      "inputs": [
        {
          "internalType": "address",
          "name": "_from",
          "type": "address"
        },
        {
          "internalType": "address",
          "name": "_to",
          "type": "address"
        },
        {
          "internalType": "uint256",
          "name": "_amount",
          "type": "uint256"
        }
      ],
      "name": "transferFrom",
      "outputs": [
        {
          "internalType": "bool",
          "name": "",
          "type": "bool"
        }
      ],
      "stateMutability": "nonpayable",
      "type": "function"
    },
    {
      "inputs": [
        {
          "internalType": "address",
          "name": "_to",
          "type": "address"
        },
        {
          "internalType": "uint256",
          "name": "_amount",
          "type": "uint256"
        }
      ],
      "name": "transfer",
      "outputs": [
        {
          "internalType": "bool",
          "name": "",
          "type": "bool"
        }
      ],
      "stateMutability": "nonpayable",
      "type": "function"
    },
    {
      "inputs": [
        {
          "internalType": "address",
          "name": "_from",
          "type": "address"
        },
        {
          "internalType": "uint256",
          "name": "_amount",
          "type": "uint256"
        }
      ],
      "name": "withdrawl",
      "outputs": [],
      "stateMutability": "nonpayable",
      "type": "function"
    },
    {
      "inputs": [
        {
          "internalType": "string",
          "name": "_name",
          "type": "string"
        },
        {
          "internalType": "uint256",
          "name": "_tokens",
          "type": "uint256"
        },
        {
          "internalType": "uint256",
          "name": "_starttime",
          "type": "uint256"
        },
        {
          "internalType": "uint256",
          "name": "_endtime",
          "type": "uint256"
        }
      ],
      "name": "developmentRounds",
      "outputs": [
        {
          "internalType": "bool",
          "name": "success",
          "type": "bool"
        }
      ],
      "stateMutability": "nonpayable",
      "type": "function"
    },
    {
      "inputs": [
        {
          "internalType": "string",
          "name": "_name",
          "type": "string"
        }
      ],
      "name": "releasefunds",
      "outputs": [],
      "stateMutability": "nonpayable",
      "type": "function"
    },
    {
      "inputs": [
        {
          "internalType": "uint256",
          "name": "_amount",
          "type": "uint256"
        }
      ],
      "name": "deposittimelock",
      "outputs": [],
      "stateMutability": "nonpayable",
      "type": "function"
    },
    {
      "inputs": [
        {
          "internalType": "string",
          "name": "_name",
          "type": "string"
        }
      ],
      "name": "getvestingdetails",
      "outputs": [
        {
          "internalType": "uint256",
          "name": "",
          "type": "uint256"
        },
        {
          "internalType": "uint256",
          "name": "",
          "type": "uint256"
        },
        {
          "internalType": "uint256",
          "name": "",
          "type": "uint256"
        },
        {
          "internalType": "address",
          "name": "",
          "type": "address"
        }
      ],
      "stateMutability": "view",
      "type": "function"
    },
    {
      "inputs": [
        {
          "internalType": "address",
          "name": "_address",
          "type": "address"
        }
      ],
      "name": "balanceOf",
      "outputs": [
        {
          "internalType": "uint256",
          "name": "",
          "type": "uint256"
        }
      ],
      "stateMutability": "view",
      "type": "function"
    },
    {
      "inputs": [],
      "name": "totalSupply",
      "outputs": [
        {
          "internalType": "uint256",
          "name": "",
          "type": "uint256"
        }
      ],
      "stateMutability": "view",
      "type": "function"
    }
  ],
  "bytecode": "0x60806040523480156200001157600080fd5b506040516200347d3803806200347d833981810160405260808110156200003757600080fd5b8101908080519060200190929190805160405193929190846401000000008211156200006257600080fd5b838201915060208201858111156200007957600080fd5b82518660018202830111640100000000821117156200009757600080fd5b8083526020830192505050908051906020019080838360005b83811015620000cd578082015181840152602081019050620000b0565b50505050905090810190601f168015620000fb5780820380516001836020036101000a031916815260200191505b50604052602001805160405193929190846401000000008211156200011f57600080fd5b838201915060208201858111156200013657600080fd5b82518660018202830111640100000000821117156200015457600080fd5b8083526020830192505050908051906020019080838360005b838110156200018a5780820151818401526020810190506200016d565b50505050905090810190601f168015620001b85780820380516001836020036101000a031916815260200191505b50604052602001805190602001909291905050506001600860003373ffffffffffffffffffffffffffffffffffffffff1673ffffffffffffffffffffffffffffffffffffffff16815260200190815260200160002060006101000a81548160ff02191690831515021790555080600560006101000a81548160ff021916908360ff1602179055508060ff16600a0a840260008190555060005460018190555060015460028190555082600390805190602001906200027892919062000400565b5081600490805190602001906200029192919062000400565b5033600560016101000a81548173ffffffffffffffffffffffffffffffffffffffff021916908373ffffffffffffffffffffffffffffffffffffffff16021790555060025460096000600560019054906101000a900473ffffffffffffffffffffffffffffffffffffffff1673ffffffffffffffffffffffffffffffffffffffff1673ffffffffffffffffffffffffffffffffffffffff168152602001908152602001600020819055506200034b6200035560201b60201c565b50505050620004bd565b600030604051620003669062000487565b808273ffffffffffffffffffffffffffffffffffffffff1673ffffffffffffffffffffffffffffffffffffffff168152602001915050604051809103906000f080158015620003b9573d6000803e3d6000fd5b50905080600660006101000a81548173ffffffffffffffffffffffffffffffffffffffff021916908373ffffffffffffffffffffffffffffffffffffffff16021790555050565b828054600181600116156101000203166002900490600052602060002090601f016020900481019282601f106200044357805160ff191683800117855562000474565b8280016001018555821562000474579182015b828111156200047357825182559160200191906001019062000456565b5b50905062000483919062000495565b5090565b610bed806200289083390190565b620004ba91905b80821115620004b65760008160009055506001016200049c565b5090565b90565b6123c380620004cd6000396000f3fe608060405234801561001057600080fd5b50600436106101425760003560e01c806370a08231116100b8578063a9059cbb1161007c578063a9059cbb146108ea578063ad67db9414610950578063ba8b85161461096e578063c5aa13771461098c578063da85a8a5146109ba578063f905cc1b14610a7557610142565b806370a082311461066c5780637be1ecf7146106c45780637ccb6a641461070e578063893a626f1461084957806395d89b411461086757610142565b8063313ce5671161010a578063313ce5671461030a5780634d2b19781461032e578063592704c5146104805780635afbed9214610590578063645ffc46146105de578063704802751461062857610142565b806306fdde03146101475780631785f53c146101ca57806318160ddd1461020e57806323b872dd1461022c57806327e235e3146102b2575b600080fd5b61014f610b66565b6040518080602001828103825283818151815260200191508051906020019080838360005b8381101561018f578082015181840152602081019050610174565b50505050905090810190601f1680156101bc5780820380516001836020036101000a031916815260200191505b509250505060405180910390f35b61020c600480360360208110156101e057600080fd5b81019080803573ffffffffffffffffffffffffffffffffffffffff169060200190929190505050610c04565b005b610216610cb5565b6040518082815260200191505060405180910390f35b6102986004803603606081101561024257600080fd5b81019080803573ffffffffffffffffffffffffffffffffffffffff169060200190929190803573ffffffffffffffffffffffffffffffffffffffff16906020019092919080359060200190929190505050610cbe565b604051808215151515815260200191505060405180910390f35b6102f4600480360360208110156102c857600080fd5b81019080803573ffffffffffffffffffffffffffffffffffffffff169060200190929190505050611008565b6040518082815260200191505060405180910390f35b610312611020565b604051808260ff1660ff16815260200191505060405180910390f35b61047e6004803603604081101561034457600080fd5b810190808035906020019064010000000081111561036157600080fd5b82018360208201111561037357600080fd5b8035906020019184600183028401116401000000008311171561039557600080fd5b91908080601f016020809104026020016040519081016040528093929190818152602001838380828437600081840152601f19601f820116905080830192505050505050509192919290803590602001906401000000008111156103f857600080fd5b82018360208201111561040a57600080fd5b8035906020019184600183028401116401000000008311171561042c57600080fd5b91908080601f016020809104026020016040519081016040528093929190818152602001838380828437600081840152601f19601f820116905080830192505050505050509192919290505050611033565b005b6105396004803603602081101561049657600080fd5b81019080803590602001906401000000008111156104b357600080fd5b8201836020820111156104c557600080fd5b803590602001918460018302840111640100000000831117156104e757600080fd5b91908080601f016020809104026020016040519081016040528093929190818152602001838380828437600081840152601f19601f820116905080830192505050505050509192919290505050611142565b604051808581526020018481526020018381526020018273ffffffffffffffffffffffffffffffffffffffff1673ffffffffffffffffffffffffffffffffffffffff16815260200194505050505060405180910390f35b6105dc600480360360408110156105a657600080fd5b81019080803573ffffffffffffffffffffffffffffffffffffffff1690602001909291908035906020019092919050505061128e565b005b6105e6611432565b604051808273ffffffffffffffffffffffffffffffffffffffff1673ffffffffffffffffffffffffffffffffffffffff16815260200191505060405180910390f35b61066a6004803603602081101561063e57600080fd5b81019080803573ffffffffffffffffffffffffffffffffffffffff169060200190929190505050611458565b005b6106ae6004803603602081101561068257600080fd5b81019080803573ffffffffffffffffffffffffffffffffffffffff169060200190929190505050611509565b6040518082815260200191505060405180910390f35b6106cc611552565b604051808273ffffffffffffffffffffffffffffffffffffffff1673ffffffffffffffffffffffffffffffffffffffff16815260200191505060405180910390f35b6107c76004803603602081101561072457600080fd5b810190808035906020019064010000000081111561074157600080fd5b82018360208201111561075357600080fd5b8035906020019184600183028401116401000000008311171561077557600080fd5b91908080601f016020809104026020016040519081016040528093929190818152602001838380828437600081840152601f19601f820116905080830192505050505050509192919290505050611578565b6040518080602001838152602001828103825284818151815260200191508051906020019080838360005b8381101561080d5780820151818401526020810190506107f2565b50505050905090810190601f16801561083a5780820380516001836020036101000a031916815260200191505b50935050505060405180910390f35b6108516116fa565b6040518082815260200191505060405180910390f35b61086f611700565b6040518080602001828103825283818151815260200191508051906020019080838360005b838110156108af578082015181840152602081019050610894565b50505050905090810190601f1680156108dc5780820380516001836020036101000a031916815260200191505b509250505060405180910390f35b6109366004803603604081101561090057600080fd5b81019080803573ffffffffffffffffffffffffffffffffffffffff1690602001909291908035906020019092919050505061179e565b604051808215151515815260200191505060405180910390f35b610958611a61565b6040518082815260200191505060405180910390f35b610976611a67565b6040518082815260200191505060405180910390f35b6109b8600480360360208110156109a257600080fd5b8101908080359060200190929190505050611a6d565b005b610a73600480360360208110156109d057600080fd5b81019080803590602001906401000000008111156109ed57600080fd5b8201836020820111156109ff57600080fd5b80359060200191846001830284011164010000000083111715610a2157600080fd5b91908080601f016020809104026020016040519081016040528093929190818152602001838380828437600081840152601f19601f820116905080830192505050505050509192919290505050611bbe565b005b610b4c60048036036080811015610a8b57600080fd5b8101908080359060200190640100000000811115610aa857600080fd5b820183602082011115610aba57600080fd5b80359060200191846001830284011164010000000083111715610adc57600080fd5b91908080601f016020809104026020016040519081016040528093929190818152602001838380828437600081840152601f19601f820116905080830192505050505050509192919290803590602001909291908035906020019092919080359060200190929190505050611dcf565b604051808215151515815260200191505060405180910390f35b60038054600181600116156101000203166002900480601f016020809104026020016040519081016040528092919081815260200182805460018160011615610100020316600290048015610bfc5780601f10610bd157610100808354040283529160200191610bfc565b820191906000526020600020905b815481529060010190602001808311610bdf57829003601f168201915b505050505081565b600860003373ffffffffffffffffffffffffffffffffffffffff1673ffffffffffffffffffffffffffffffffffffffff16815260200190815260200160002060009054906101000a900460ff16610c5a57600080fd5b6000600860008373ffffffffffffffffffffffffffffffffffffffff1673ffffffffffffffffffffffffffffffffffffffff16815260200190815260200160002060006101000a81548160ff02191690831515021790555050565b60008054905090565b6000600860003373ffffffffffffffffffffffffffffffffffffffff1673ffffffffffffffffffffffffffffffffffffffff16815260200190815260200160002060009054906101000a900460ff16610d1657600080fd5b600073ffffffffffffffffffffffffffffffffffffffff168473ffffffffffffffffffffffffffffffffffffffff161415610d9c576040517f08c379a00000000000000000000000000000000000000000000000000000000081526004018080602001828103825260258152602001806123696025913960400191505060405180910390fd5b600073ffffffffffffffffffffffffffffffffffffffff168373ffffffffffffffffffffffffffffffffffffffff161415610e22576040517f08c379a00000000000000000000000000000000000000000000000000000000081526004018080602001828103825260238152602001806123466023913960400191505060405180910390fd5b81600960008673ffffffffffffffffffffffffffffffffffffffff1673ffffffffffffffffffffffffffffffffffffffff168152602001908152602001600020541015610e6e57600080fd5b610ec082600960008773ffffffffffffffffffffffffffffffffffffffff1673ffffffffffffffffffffffffffffffffffffffff1681526020019081526020016000205461210e90919063ffffffff16565b600960008673ffffffffffffffffffffffffffffffffffffffff1673ffffffffffffffffffffffffffffffffffffffff16815260200190815260200160002081905550610f5582600960008673ffffffffffffffffffffffffffffffffffffffff1673ffffffffffffffffffffffffffffffffffffffff1681526020019081526020016000205461215890919063ffffffff16565b600960008573ffffffffffffffffffffffffffffffffffffffff1673ffffffffffffffffffffffffffffffffffffffff168152602001908152602001600020819055508273ffffffffffffffffffffffffffffffffffffffff168473ffffffffffffffffffffffffffffffffffffffff167fddf252ad1be2c89b69c2b068fc378daa952ba7f163c4a11628f55a4df523b3ef846040518082815260200191505060405180910390a3600190509392505050565b60096020528060005260406000206000915090505481565b600560009054906101000a900460ff1681565b60405180606001604052808281526020014281526020013373ffffffffffffffffffffffffffffffffffffffff168152506007836040518082805190602001908083835b6020831061109a5780518252602082019150602081019050602083039250611077565b6001836020036101000a038019825116818451168082178552505050505050905001915050908152602001604051809103902060008201518160000190805190602001906110e99291906122a0565b506020820151816001015560408201518160020160006101000a81548173ffffffffffffffffffffffffffffffffffffffff021916908373ffffffffffffffffffffffffffffffffffffffff1602179055509050505050565b6000806000806000600660009054906101000a900473ffffffffffffffffffffffffffffffffffffffff1690508073ffffffffffffffffffffffffffffffffffffffff1663592704c5876040518263ffffffff1660e01b81526004018080602001828103825283818151815260200191508051906020019080838360005b838110156111db5780820151818401526020810190506111c0565b50505050905090810190601f1680156112085780820380516001836020036101000a031916815260200191505b509250505060806040518083038186803b15801561122557600080fd5b505afa158015611239573d6000803e3d6000fd5b505050506040513d608081101561124f57600080fd5b81019080805190602001909291908051906020019092919080519060200190929190805190602001909291905050509450945094509450509193509193565b600860003373ffffffffffffffffffffffffffffffffffffffff1673ffffffffffffffffffffffffffffffffffffffff16815260200190815260200160002060009054906101000a900460ff166112e457600080fd5b80600960008473ffffffffffffffffffffffffffffffffffffffff1673ffffffffffffffffffffffffffffffffffffffff16815260200190815260200160002054101561133057600080fd5b61138281600960008573ffffffffffffffffffffffffffffffffffffffff1673ffffffffffffffffffffffffffffffffffffffff1681526020019081526020016000205461210e90919063ffffffff16565b600960008473ffffffffffffffffffffffffffffffffffffffff1673ffffffffffffffffffffffffffffffffffffffff168152602001908152602001600020819055506113da8160025461210e90919063ffffffff16565b6002819055508173ffffffffffffffffffffffffffffffffffffffff167ff3fef3a3f44f9c277339b67d54f015748bd8d6b77a985b0ab6e71126b018c34a826040518082815260200191505060405180910390a25050565b600560019054906101000a900473ffffffffffffffffffffffffffffffffffffffff1681565b600860003373ffffffffffffffffffffffffffffffffffffffff1673ffffffffffffffffffffffffffffffffffffffff16815260200190815260200160002060009054906101000a900460ff166114ae57600080fd5b6001600860008373ffffffffffffffffffffffffffffffffffffffff1673ffffffffffffffffffffffffffffffffffffffff16815260200190815260200160002060006101000a81548160ff02191690831515021790555050565b6000600960008373ffffffffffffffffffffffffffffffffffffffff1673ffffffffffffffffffffffffffffffffffffffff168152602001908152602001600020549050919050565b600660009054906101000a900473ffffffffffffffffffffffffffffffffffffffff1681565b606060006007836040518082805190602001908083835b602083106115b2578051825260208201915060208101905060208303925061158f565b6001836020036101000a03801982511681845116808217855250505050505090500191505090815260200160405180910390206000016007846040518082805190602001908083835b6020831061161e57805182526020820191506020810190506020830392506115fb565b6001836020036101000a038019825116818451168082178552505050505050905001915050908152602001604051809103902060010154818054600181600116156101000203166002900480601f0160208091040260200160405190810160405280929190818152602001828054600181600116156101000203166002900480156116ea5780601f106116bf576101008083540402835291602001916116ea565b820191906000526020600020905b8154815290600101906020018083116116cd57829003601f168201915b5050505050915091509150915091565b60005481565b60048054600181600116156101000203166002900480601f0160208091040260200160405190810160405280929190818152602001828054600181600116156101000203166002900480156117965780601f1061176b57610100808354040283529160200191611796565b820191906000526020600020905b81548152906001019060200180831161177957829003601f168201915b505050505081565b6000600860003373ffffffffffffffffffffffffffffffffffffffff1673ffffffffffffffffffffffffffffffffffffffff16815260200190815260200160002060009054906101000a900460ff166117f657600080fd5b600073ffffffffffffffffffffffffffffffffffffffff168373ffffffffffffffffffffffffffffffffffffffff16141561187c576040517f08c379a00000000000000000000000000000000000000000000000000000000081526004018080602001828103825260238152602001806123466023913960400191505060405180910390fd5b81600960003373ffffffffffffffffffffffffffffffffffffffff1673ffffffffffffffffffffffffffffffffffffffff1681526020019081526020016000205410156118c857600080fd5b61191a82600960003373ffffffffffffffffffffffffffffffffffffffff1673ffffffffffffffffffffffffffffffffffffffff1681526020019081526020016000205461210e90919063ffffffff16565b600960003373ffffffffffffffffffffffffffffffffffffffff1673ffffffffffffffffffffffffffffffffffffffff168152602001908152602001600020819055506119af82600960008673ffffffffffffffffffffffffffffffffffffffff1673ffffffffffffffffffffffffffffffffffffffff1681526020019081526020016000205461215890919063ffffffff16565b600960008573ffffffffffffffffffffffffffffffffffffffff1673ffffffffffffffffffffffffffffffffffffffff168152602001908152602001600020819055508273ffffffffffffffffffffffffffffffffffffffff163373ffffffffffffffffffffffffffffffffffffffff167fddf252ad1be2c89b69c2b068fc378daa952ba7f163c4a11628f55a4df523b3ef846040518082815260200191505060405180910390a36001905092915050565b60015481565b60025481565b600660009054906101000a900473ffffffffffffffffffffffffffffffffffffffff1673ffffffffffffffffffffffffffffffffffffffff163373ffffffffffffffffffffffffffffffffffffffff1614611ac757600080fd5b611b3b8160096000600560019054906101000a900473ffffffffffffffffffffffffffffffffffffffff1673ffffffffffffffffffffffffffffffffffffffff1673ffffffffffffffffffffffffffffffffffffffff1681526020019081526020016000205461215890919063ffffffff16565b60096000600560019054906101000a900473ffffffffffffffffffffffffffffffffffffffff1673ffffffffffffffffffffffffffffffffffffffff1673ffffffffffffffffffffffffffffffffffffffff16815260200190815260200160002081905550611bb58160025461215890919063ffffffff16565b60028190555050565b600860003373ffffffffffffffffffffffffffffffffffffffff1673ffffffffffffffffffffffffffffffffffffffff16815260200190815260200160002060009054906101000a900460ff16611c1457600080fd5b6000600660009054906101000a900473ffffffffffffffffffffffffffffffffffffffff1690508073ffffffffffffffffffffffffffffffffffffffff1663bdb04c79836040518263ffffffff1660e01b81526004018080602001828103825283818151815260200191508051906020019080838360005b83811015611ca7578082015181840152602081019050611c8c565b50505050905090810190601f168015611cd45780820380516001836020036101000a031916815260200191505b5092505050602060405180830381600087803b158015611cf357600080fd5b505af1158015611d07573d6000803e3d6000fd5b505050506040513d6020811015611d1d57600080fd5b8101908080519060200190929190505050507fc3c096f351c2fa496483baf70143c6a5252fb2f31e5ca14657f95f88e91fe728826040518080602001828103825283818151815260200191508051906020019080838360005b83811015611d91578082015181840152602081019050611d76565b50505050905090810190601f168015611dbe5780820380516001836020036101000a031916815260200191505b509250505060405180910390a15050565b6000600860003373ffffffffffffffffffffffffffffffffffffffff1673ffffffffffffffffffffffffffffffffffffffff16815260200190815260200160002060009054906101000a900460ff16611e2757600080fd5b600254841115611e3657600080fd5b6000600660009054906101000a900473ffffffffffffffffffffffffffffffffffffffff169050611ed18560096000600560019054906101000a900473ffffffffffffffffffffffffffffffffffffffff1673ffffffffffffffffffffffffffffffffffffffff1673ffffffffffffffffffffffffffffffffffffffff1681526020019081526020016000205461210e90919063ffffffff16565b60096000600560019054906101000a900473ffffffffffffffffffffffffffffffffffffffff1673ffffffffffffffffffffffffffffffffffffffff1673ffffffffffffffffffffffffffffffffffffffff16815260200190815260200160002081905550611f4b8560025461210e90919063ffffffff16565b6002819055508073ffffffffffffffffffffffffffffffffffffffff1663db89adf5878787876040518563ffffffff1660e01b81526004018080602001858152602001848152602001838152602001828103825286818151815260200191508051906020019080838360005b83811015611fd2578082015181840152602081019050611fb7565b50505050905090810190601f168015611fff5780820380516001836020036101000a031916815260200191505b5095505050505050602060405180830381600087803b15801561202157600080fd5b505af1158015612035573d6000803e3d6000fd5b505050506040513d602081101561204b57600080fd5b8101908080519060200190929190505050507f741c9194b14938fc0bfeafeb4f8a97128a76499aebffcad374bb0a7920cd340586866040518080602001838152602001828103825284818151815260200191508051906020019080838360005b838110156120c65780820151818401526020810190506120ab565b50505050905090810190601f1680156120f35780820380516001836020036101000a031916815260200191505b50935050505060405180910390a16001915050949350505050565b600061215083836040518060400160405280601e81526020017f536166654d6174683a207375627472616374696f6e206f766572666c6f7700008152506121e0565b905092915050565b6000808284019050838110156121d6576040517f08c379a000000000000000000000000000000000000000000000000000000000815260040180806020018281038252601b8152602001807f536166654d6174683a206164646974696f6e206f766572666c6f77000000000081525060200191505060405180910390fd5b8091505092915050565b600083831115829061228d576040517f08c379a00000000000000000000000000000000000000000000000000000000081526004018080602001828103825283818151815260200191508051906020019080838360005b83811015612252578082015181840152602081019050612237565b50505050905090810190601f16801561227f5780820380516001836020036101000a031916815260200191505b509250505060405180910390fd5b5060008385039050809150509392505050565b828054600181600116156101000203166002900490600052602060002090601f016020900481019282601f106122e157805160ff191683800117855561230f565b8280016001018555821561230f579182015b8281111561230e5782518255916020019190600101906122f3565b5b50905061231c9190612320565b5090565b61234291905b8082111561233e576000816000905550600101612326565b5090565b9056fe45524332303a207472616e7366657220746f20746865207a65726f206164647265737345524332303a207472616e736665722066726f6d20746865207a65726f2061646472657373a264697066735822122076b6cbcfb74a5d1cf887704979416a1f3d870564bddade7fd522548f98c6f67464736f6c63430006000033608060405234801561001057600080fd5b50604051610bed380380610bed8339818101604052602081101561003357600080fd5b810190808051906020019092919050505080600160006101000a81548173ffffffffffffffffffffffffffffffffffffffff021916908373ffffffffffffffffffffffffffffffffffffffff160217905550806000806101000a81548173ffffffffffffffffffffffffffffffffffffffff021916908373ffffffffffffffffffffffffffffffffffffffff16021790555050610b18806100d56000396000f3fe60806040526004361061004a5760003560e01c806335b5b1c61461004f578063592704c5146100a6578063bdb04c79146101c3578063d050f79c14610296578063db89adf5146103b3575b600080fd5b34801561005b57600080fd5b506100646104b1565b604051808273ffffffffffffffffffffffffffffffffffffffff1673ffffffffffffffffffffffffffffffffffffffff16815260200191505060405180910390f35b3480156100b257600080fd5b5061016c600480360360208110156100c957600080fd5b81019080803590602001906401000000008111156100e657600080fd5b8201836020820111156100f857600080fd5b8035906020019184600183028401116401000000008311171561011a57600080fd5b91908080601f016020809104026020016040519081016040528093929190818152602001838380828437600081840152601f19601f8201169050808301925050505050505091929192905050506104d6565b604051808581526020018481526020018381526020018273ffffffffffffffffffffffffffffffffffffffff1673ffffffffffffffffffffffffffffffffffffffff16815260200194505050505060405180910390f35b61027c600480360360208110156101d957600080fd5b81019080803590602001906401000000008111156101f657600080fd5b82018360208201111561020857600080fd5b8035906020019184600183028401116401000000008311171561022a57600080fd5b91908080601f016020809104026020016040519081016040528093929190818152602001838380828437600081840152601f19601f8201169050808301925050505050505091929192905050506106bf565b604051808215151515815260200191505060405180910390f35b3480156102a257600080fd5b5061035c600480360360208110156102b957600080fd5b81019080803590602001906401000000008111156102d657600080fd5b8201836020820111156102e857600080fd5b8035906020019184600183028401116401000000008311171561030a57600080fd5b91908080601f016020809104026020016040519081016040528093929190818152602001838380828437600081840152601f19601f82011690508083019250505050505050919291929050505061090d565b604051808581526020018481526020018381526020018273ffffffffffffffffffffffffffffffffffffffff1673ffffffffffffffffffffffffffffffffffffffff16815260200194505050505060405180910390f35b3480156103bf57600080fd5b50610497600480360360808110156103d657600080fd5b81019080803590602001906401000000008111156103f357600080fd5b82018360208201111561040557600080fd5b8035906020019184600183028401116401000000008311171561042757600080fd5b91908080601f016020809104026020016040519081016040528093929190818152602001838380828437600081840152601f19601f820116905080830192505050505050509192919290803590602001909291908035906020019092919080359060200190929190505050610973565b604051808215151515815260200191505060405180910390f35b6000809054906101000a900473ffffffffffffffffffffffffffffffffffffffff1681565b6000806000806002856040518082805190602001908083835b6020831061051257805182526020820191506020810190506020830392506104ef565b6001836020036101000a0380198251168184511680821785525050505050509050019150509081526020016040518091039020600001546002866040518082805190602001908083835b6020831061057f578051825260208201915060208101905060208303925061055c565b6001836020036101000a0380198251168184511680821785525050505050509050019150509081526020016040518091039020600101546002876040518082805190602001908083835b602083106105ec57805182526020820191506020810190506020830392506105c9565b6001836020036101000a0380198251168184511680821785525050505050509050019150509081526020016040518091039020600201546002886040518082805190602001908083835b602083106106595780518252602082019150602081019050602083039250610636565b6001836020036101000a038019825116818451168082178552505050505050905001915050908152602001604051809103902060030160009054906101000a900473ffffffffffffffffffffffffffffffffffffffff1693509350935093509193509193565b60003373ffffffffffffffffffffffffffffffffffffffff166000809054906101000a900473ffffffffffffffffffffffffffffffffffffffff1673ffffffffffffffffffffffffffffffffffffffff161461071a57600080fd5b426002836040518082805190602001908083835b60208310610751578051825260208201915060208101905060208303925061072e565b6001836020036101000a038019825116818451168082178552505050505050905001915050908152602001604051809103902060010154111561079357600080fd5b60006002836040518082805190602001908083835b602083106107cb57805182526020820191506020810190506020830392506107a8565b6001836020036101000a038019825116818451168082178552505050505050905001915050908152602001604051809103902060000154905060006002846040518082805190602001908083835b6020831061083c5780518252602082019150602081019050602083039250610819565b6001836020036101000a038019825116818451168082178552505050505050905001915050908152602001604051809103902060000181905550600160009054906101000a900473ffffffffffffffffffffffffffffffffffffffff1673ffffffffffffffffffffffffffffffffffffffff1663c5aa1377826040518263ffffffff1660e01b815260040180828152602001915050600060405180830381600087803b1580156108eb57600080fd5b505af11580156108ff573d6000803e3d6000fd5b505050506001915050919050565b6002818051602081018201805184825260208301602085012081835280955050505050506000915090508060000154908060010154908060020154908060030160009054906101000a900473ffffffffffffffffffffffffffffffffffffffff16905084565b60003373ffffffffffffffffffffffffffffffffffffffff166000809054906101000a900473ffffffffffffffffffffffffffffffffffffffff1673ffffffffffffffffffffffffffffffffffffffff16146109ce57600080fd5b60405180608001604052808581526020018481526020018381526020013373ffffffffffffffffffffffffffffffffffffffff168152506002866040518082805190602001908083835b60208310610a3b5780518252602082019150602081019050602083039250610a18565b6001836020036101000a038019825116818451168082178552505050505050905001915050908152602001604051809103902060008201518160000155602082015181600101556040820151816002015560608201518160030160006101000a81548173ffffffffffffffffffffffffffffffffffffffff021916908373ffffffffffffffffffffffffffffffffffffffff1602179055509050506001905094935050505056fea2646970667358221220826df034700103846541abc0392e137f83fbaec1eb1893f2e9f2024598303baa64736f6c63430006000033",
  "source": "pragma solidity ^0.6.0;\r\nimport \"@openzeppelin/contracts/math/SafeMath.sol\";\r\n\r\ncontract ErContract {\r\n    using SafeMath for uint256;\r\n    uint256 public totalarea;\r\n    uint256 public totaltokens;\r\n    uint256 public circulationsupply;\r\n    string public name;\r\n    string public symbol;\r\n    uint8 public decimals;\r\n\r\n    address public daowallet;\r\n    address public timelockcontractaddress;\r\n\r\n    struct Documents {\r\n        string documenturi;\r\n        uint256 timestamp;\r\n        address owner;\r\n    }\r\n\r\n    mapping(string => Documents) drawings;\r\n\r\n    mapping(address => bool) admins;\r\n    mapping(address => uint256) public balances;\r\n\r\n    event Transfer(address indexed from, address indexed to, uint256 value);\r\n    event withdraw(address indexed from, uint256 amount);\r\n    event unlockedfunds(string);\r\n    event lockfunds(string, uint256);\r\n\r\n    constructor(\r\n        uint256 _totalarea,\r\n        string memory _name,\r\n        string memory _symbol,\r\n        uint8 _divisions\r\n    ) public {\r\n        admins[msg.sender] = true;\r\n        decimals = _divisions;\r\n        totalarea = _totalarea * (uint256(10) ** _divisions);\r\n        totaltokens = totalarea;\r\n        circulationsupply = totaltokens;\r\n        name = _name;\r\n        symbol = _symbol;\r\n       \r\n        daowallet = msg.sender;\r\n        balances[daowallet] = circulationsupply;\r\n\r\n        //  Fire up timelock contract\r\n\r\n        timelockcontract();\r\n    }\r\n\r\n    function timelockcontract() internal {\r\n        // sending parent contract address to timelock contract so that functions of timelock contract can only be called by parent contract.\r\n        ErTokenTimelock timelock = new ErTokenTimelock(address(this));\r\n\r\n        // storing timelock contract address in parent contract for documentation purposes.\r\n        timelockcontractaddress = address(timelock);\r\n    }\r\n\r\n    function addAdmin(address _adminAddress) external onlyAdmin {\r\n        admins[_adminAddress] = true;\r\n    }\r\n\r\n    function removeAdmin(address _adminAddress) external onlyAdmin {\r\n        admins[_adminAddress] = false;\r\n    }\r\n\r\n    function addDocument(string memory _name, string memory _additionaldocsurl)\r\n        public\r\n    {\r\n        drawings[_name] = Documents(_additionaldocsurl, now, msg.sender);\r\n    }\r\n\r\n    function getDocument(string memory _name)\r\n        public\r\n        view\r\n        returns (string memory, uint256)\r\n    {\r\n        return (drawings[_name].documenturi, drawings[_name].timestamp);\r\n    }\r\n\r\n    /* Transfer tokens from one investor to another (sell process) */\r\n\r\n    function transferFrom(\r\n        address _from,\r\n        address _to,\r\n        uint256 _amount\r\n    ) public onlyAdmin returns (bool) {\r\n        require(_from != address(0), \"ERC20: transfer from the zero address\");\r\n        require(_to != address(0), \"ERC20: transfer to the zero address\");\r\n        require(balances[_from] >= _amount);\r\n        balances[_from] = balances[_from].sub(_amount);\r\n        balances[_to] = balances[_to].add(_amount);\r\n        emit Transfer(_from, _to, _amount);\r\n        return true;\r\n    }\r\n\r\n    /* Function to issue tokens to new investors */\r\n\r\n    function transfer(address _to, uint256 _amount)\r\n        public\r\n        onlyAdmin\r\n        returns (bool)\r\n    {\r\n        //require(_from != address(0), \"ERC20: transfer from the zero address\");\r\n        require(_to != address(0), \"ERC20: transfer to the zero address\");\r\n        require(balances[msg.sender] >= _amount);\r\n        balances[msg.sender] = balances[msg.sender].sub(_amount);\r\n        balances[_to]= balances[_to].add(_amount);\r\n        emit Transfer(msg.sender, _to, _amount);\r\n        return true;\r\n    }\r\n\r\n    /* Liquidate tokens from investors.\t*/\r\n\r\n    function withdrawl(address _from, uint256 _amount) public onlyAdmin {\r\n        require(balances[_from] >= _amount);\r\n        balances[_from] = balances[_from].sub(_amount);\r\n        circulationsupply = circulationsupply.sub(_amount);\r\n        emit withdraw(_from, _amount);\r\n    }\r\n\r\n    /*  Function to lock tokens */\r\n\r\n    function developmentRounds(\r\n        string memory _name,\r\n        uint256 _tokens,\r\n        uint256 _starttime,\r\n        uint256 _endtime\r\n    ) public onlyAdmin returns (bool success) {\r\n        require(_tokens <= circulationsupply);\r\n        ErTokenTimelock timelock = ErTokenTimelock(timelockcontractaddress);\r\n        balances[daowallet] = balances[daowallet].sub(_tokens);\r\n        circulationsupply = circulationsupply.sub(_tokens);\r\n        timelock.depositaddress(_name, _tokens, _starttime, _endtime);\r\n        emit lockfunds(_name, _tokens);\r\n        return true;\r\n    }\r\n\r\n    /* Function to release tokens */\r\n\r\n    function releasefunds(string memory _name) public onlyAdmin {\r\n        ErTokenTimelock timelock = ErTokenTimelock(timelockcontractaddress);\r\n        timelock.withdrawltokens(_name);\r\n        emit unlockedfunds(_name);\r\n    }\r\n\r\n    function deposittimelock(uint256 _amount) public childcontract {\r\n        balances[daowallet] = balances[daowallet].add(_amount);\r\n        circulationsupply = circulationsupply.add(_amount);\r\n    }\r\n\r\n    /* Get vesting details of locked tokens. */\r\n\r\n    function getvestingdetails(string memory _name)\r\n        public\r\n        view\r\n        returns (\r\n            uint256,\r\n            uint256,\r\n            uint256,\r\n            address\r\n        )\r\n    {\r\n        ErTokenTimelock timelock = ErTokenTimelock(timelockcontractaddress);\r\n        return timelock.getvestingdetails(_name);\r\n    }\r\n\r\n    /* Fetch balance of user\t*/\r\n\r\n    function balanceOf(address _address) public view returns (uint256) {\r\n        return balances[_address];\r\n    }\r\n\r\n    /* fetch total tokens\t\t*/\r\n\r\n    function totalSupply() public view returns (uint256) {\r\n        return totalarea;\r\n    }\r\n\r\n    /* if conditions for admin purposes.\r\n     */\r\n    modifier onlyAdmin() {\r\n        require(admins[msg.sender]);\r\n        _;\r\n    }\r\n\r\n    modifier childcontract() {\r\n        require(msg.sender == timelockcontractaddress);\r\n        _;\r\n    }\r\n}\r\n\r\n// Timelock contract //\r\n\r\ncontract ErTokenTimelock {\r\n    struct Vestingperiod {\r\n        uint256 totalsupply;\r\n        uint256 starttime;\r\n        uint256 endtime;\r\n        address owneraddress;\r\n    }\r\n\r\n    address public maincontract;\r\n    ErContract c;\r\n\r\n    // mapping for vesting stages\r\n\r\n    mapping(string => Vestingperiod) public vestingstages;\r\n\r\n    constructor(address _maincontract) public {\r\n        c = ErContract(_maincontract);\r\n        maincontract = _maincontract;\r\n    }\r\n\r\n    function depositaddress(\r\n        string memory name,\r\n        uint256 _tokensupply,\r\n        uint256 _starttime,\r\n        uint256 _endtime\r\n    ) public onlymaincontract returns (bool success) {\r\n        vestingstages[name] = Vestingperiod(\r\n            _tokensupply,\r\n            _starttime,\r\n            _endtime,\r\n            msg.sender\r\n        );\r\n        return true;\r\n    }\r\n\r\n    function withdrawltokens(string memory _name)\r\n        public\r\n        payable\r\n        onlymaincontract\r\n        returns (bool success)\r\n    {\r\n        require(vestingstages[_name].starttime <= now);\r\n        uint256 amount = vestingstages[_name].totalsupply;\r\n        vestingstages[_name].totalsupply = 0;\r\n        c.deposittimelock(amount);\r\n        return true;\r\n    }\r\n\r\n    function getvestingdetails(string memory _name)\r\n        public\r\n        view\r\n        returns (\r\n            uint256,\r\n            uint256,\r\n            uint256,\r\n            address\r\n        )\r\n    {\r\n        return (\r\n            vestingstages[_name].totalsupply,\r\n            vestingstages[_name].starttime,\r\n            vestingstages[_name].endtime,\r\n            vestingstages[_name].owneraddress\r\n        );\r\n    }\r\n\r\n    modifier onlymaincontract() {\r\n        require(maincontract == msg.sender);\r\n        _;\r\n    }\r\n}\r\n",
  "sourcePath": "G:/DAOPROPTECH/Elements-Project/elements-backend-api/BlockchainModule/contracts/ERContract.sol",
  "compiler": {
    "name": "solc",
    "version": "0.6.0+commit.26b70077.Emscripten.clang"
  },
  "schemaVersion": "3.3.0",
  "updatedAt": "2020-11-23T09:29:43.171Z",
  "devdoc": {
    "methods": {}
  },
  "userdoc": {
    "methods": {}
  }
}