{
  "contractName": "maturePropertyContract",
  "abi": [
    {
      "inputs": [
        {
          "internalType": "uint256",
          "name": "_totalarea",
          "type": "uint256"
        },
        {
          "internalType": "string",
          "name": "_name",
          "type": "string"
        },
        {
          "internalType": "string",
          "name": "_symbol",
          "type": "string"
        },
        {
          "internalType": "uint8",
          "name": "_divisions",
          "type": "uint8"
        }
      ],
      "stateMutability": "nonpayable",
      "type": "constructor"
    },
    {
      "anonymous": false,
      "inputs": [
        {
          "indexed": true,
          "internalType": "address",
          "name": "from",
          "type": "address"
        },
        {
          "indexed": true,
          "internalType": "address",
          "name": "to",
          "type": "address"
        },
        {
          "indexed": false,
          "internalType": "uint256",
          "name": "value",
          "type": "uint256"
        }
      ],
      "name": "Transfer",
      "type": "event"
    },
    {
      "anonymous": false,
      "inputs": [
        {
          "indexed": true,
          "internalType": "address",
          "name": "from",
          "type": "address"
        },
        {
          "indexed": false,
          "internalType": "uint256",
          "name": "amount",
          "type": "uint256"
        }
      ],
      "name": "withdraw",
      "type": "event"
    },
    {
      "inputs": [
        {
          "internalType": "address",
          "name": "",
          "type": "address"
        }
      ],
      "name": "balances",
      "outputs": [
        {
          "internalType": "uint256",
          "name": "",
          "type": "uint256"
        }
      ],
      "stateMutability": "view",
      "type": "function"
    },
    {
      "inputs": [],
      "name": "circulationsupply",
      "outputs": [
        {
          "internalType": "uint256",
          "name": "",
          "type": "uint256"
        }
      ],
      "stateMutability": "view",
      "type": "function"
    },
    {
      "inputs": [],
      "name": "daowallet",
      "outputs": [
        {
          "internalType": "address",
          "name": "",
          "type": "address"
        }
      ],
      "stateMutability": "view",
      "type": "function"
    },
    {
      "inputs": [],
      "name": "decimals",
      "outputs": [
        {
          "internalType": "uint8",
          "name": "",
          "type": "uint8"
        }
      ],
      "stateMutability": "view",
      "type": "function"
    },
    {
      "inputs": [],
      "name": "name",
      "outputs": [
        {
          "internalType": "string",
          "name": "",
          "type": "string"
        }
      ],
      "stateMutability": "view",
      "type": "function"
    },
    {
      "inputs": [],
      "name": "symbol",
      "outputs": [
        {
          "internalType": "string",
          "name": "",
          "type": "string"
        }
      ],
      "stateMutability": "view",
      "type": "function"
    },
    {
      "inputs": [],
      "name": "totalarea",
      "outputs": [
        {
          "internalType": "uint256",
          "name": "",
          "type": "uint256"
        }
      ],
      "stateMutability": "view",
      "type": "function"
    },
    {
      "inputs": [],
      "name": "totaltokens",
      "outputs": [
        {
          "internalType": "uint256",
          "name": "",
          "type": "uint256"
        }
      ],
      "stateMutability": "view",
      "type": "function"
    },
    {
      "inputs": [
        {
          "internalType": "address",
          "name": "_adminAddress",
          "type": "address"
        }
      ],
      "name": "addAdmin",
      "outputs": [],
      "stateMutability": "nonpayable",
      "type": "function"
    },
    {
      "inputs": [
        {
          "internalType": "address",
          "name": "_adminAddress",
          "type": "address"
        }
      ],
      "name": "removeAdmin",
      "outputs": [],
      "stateMutability": "nonpayable",
      "type": "function"
    },
    {
      "inputs": [
        {
          "internalType": "address",
          "name": "_from",
          "type": "address"
        },
        {
          "internalType": "address",
          "name": "_to",
          "type": "address"
        },
        {
          "internalType": "uint256",
          "name": "_amount",
          "type": "uint256"
        }
      ],
      "name": "transferFrom",
      "outputs": [
        {
          "internalType": "bool",
          "name": "",
          "type": "bool"
        }
      ],
      "stateMutability": "nonpayable",
      "type": "function"
    },
    {
      "inputs": [
        {
          "internalType": "address",
          "name": "_to",
          "type": "address"
        },
        {
          "internalType": "uint256",
          "name": "_amount",
          "type": "uint256"
        }
      ],
      "name": "transfer",
      "outputs": [
        {
          "internalType": "bool",
          "name": "",
          "type": "bool"
        }
      ],
      "stateMutability": "nonpayable",
      "type": "function"
    },
    {
      "inputs": [
        {
          "internalType": "address",
          "name": "_from",
          "type": "address"
        },
        {
          "internalType": "uint256",
          "name": "_amount",
          "type": "uint256"
        }
      ],
      "name": "withdrawl",
      "outputs": [],
      "stateMutability": "nonpayable",
      "type": "function"
    },
    {
      "inputs": [
        {
          "internalType": "address",
          "name": "_address",
          "type": "address"
        }
      ],
      "name": "balanceOf",
      "outputs": [
        {
          "internalType": "uint256",
          "name": "",
          "type": "uint256"
        }
      ],
      "stateMutability": "view",
      "type": "function"
    },
    {
      "inputs": [],
      "name": "totalSupply",
      "outputs": [
        {
          "internalType": "uint256",
          "name": "",
          "type": "uint256"
        }
      ],
      "stateMutability": "view",
      "type": "function"
    },
    {
      "inputs": [
        {
          "internalType": "address[]",
          "name": "_from",
          "type": "address[]"
        },
        {
          "internalType": "address[]",
          "name": "_to",
          "type": "address[]"
        },
        {
          "internalType": "uint256[]",
          "name": "_values",
          "type": "uint256[]"
        }
      ],
      "name": "multisend",
      "outputs": [
        {
          "internalType": "bool",
          "name": "",
          "type": "bool"
        }
      ],
      "stateMutability": "nonpayable",
      "type": "function"
    }
  ],
  "bytecode": "0x60806040523480156200001157600080fd5b50d380156200001f57600080fd5b50d280156200002d57600080fd5b506040516200184b3803806200184b833981810160405260808110156200005357600080fd5b8101908080519060200190929190805160405193929190846401000000008211156200007e57600080fd5b838201915060208201858111156200009557600080fd5b8251866001820283011164010000000082111715620000b357600080fd5b8083526020830192505050908051906020019080838360005b83811015620000e9578082015181840152602081019050620000cc565b50505050905090810190601f168015620001175780820380516001836020036101000a031916815260200191505b50604052602001805160405193929190846401000000008211156200013b57600080fd5b838201915060208201858111156200015257600080fd5b82518660018202830111640100000000821117156200017057600080fd5b8083526020830192505050908051906020019080838360005b83811015620001a657808201518184015260208101905062000189565b50505050905090810190601f168015620001d45780820380516001836020036101000a031916815260200191505b50604052602001805190602001909291905050506001600660003373ffffffffffffffffffffffffffffffffffffffff1673ffffffffffffffffffffffffffffffffffffffff16815260200190815260200160002060006101000a81548160ff02191690831515021790555080600560006101000a81548160ff021916908360ff1602179055508060ff16600a0a840260008190555060005460018190555060015460028190555082600390805190602001906200029492919062000361565b508160049080519060200190620002ad92919062000361565b5033600560016101000a81548173ffffffffffffffffffffffffffffffffffffffff021916908373ffffffffffffffffffffffffffffffffffffffff16021790555060025460076000600560019054906101000a900473ffffffffffffffffffffffffffffffffffffffff1673ffffffffffffffffffffffffffffffffffffffff1673ffffffffffffffffffffffffffffffffffffffff168152602001908152602001600020819055505050505062000407565b828054600181600116156101000203166002900490600052602060002090601f016020900481019282601f10620003a457805160ff1916838001178555620003d5565b82800160010185558215620003d5579182015b82811115620003d4578251825591602001919060010190620003b7565b5b509050620003e49190620003e8565b5090565b5b8082111562000403576000816000905550600101620003e9565b5090565b61143480620004176000396000f3fe608060405234801561001057600080fd5b50d3801561001d57600080fd5b50d2801561002a57600080fd5b506004361061011a5760003560e01c806370480275116100b157806395d89b411161008057806395d89b4114610576578063a9059cbb146105f9578063ad67db941461065d578063ba8b85161461067b5761011a565b8063704802751461038357806370a08231146103c7578063893a626f1461041f57806395116bd81461043d5761011a565b806327e235e3116100ed57806327e235e314610288578063313ce567146102e05780635afbed9214610301578063645ffc461461034f5761011a565b806306fdde031461011f5780631785f53c146101a257806318160ddd146101e657806323b872dd14610204575b600080fd5b610127610699565b6040518080602001828103825283818151815260200191508051906020019080838360005b8381101561016757808201518184015260208101905061014c565b50505050905090810190601f1680156101945780820380516001836020036101000a031916815260200191505b509250505060405180910390f35b6101e4600480360360208110156101b857600080fd5b81019080803573ffffffffffffffffffffffffffffffffffffffff169060200190929190505050610737565b005b6101ee6107e8565b6040518082815260200191505060405180910390f35b6102706004803603606081101561021a57600080fd5b81019080803573ffffffffffffffffffffffffffffffffffffffff169060200190929190803573ffffffffffffffffffffffffffffffffffffffff169060200190929190803590602001909291905050506107f1565b60405180821515815260200191505060405180910390f35b6102ca6004803603602081101561029e57600080fd5b81019080803573ffffffffffffffffffffffffffffffffffffffff169060200190929190505050610b3b565b6040518082815260200191505060405180910390f35b6102e8610b53565b604051808260ff16815260200191505060405180910390f35b61034d6004803603604081101561031757600080fd5b81019080803573ffffffffffffffffffffffffffffffffffffffff16906020019092919080359060200190929190505050610b66565b005b610357610d0a565b604051808273ffffffffffffffffffffffffffffffffffffffff16815260200191505060405180910390f35b6103c56004803603602081101561039957600080fd5b81019080803573ffffffffffffffffffffffffffffffffffffffff169060200190929190505050610d30565b005b610409600480360360208110156103dd57600080fd5b81019080803573ffffffffffffffffffffffffffffffffffffffff169060200190929190505050610de1565b6040518082815260200191505060405180910390f35b610427610e2a565b6040518082815260200191505060405180910390f35b61055e6004803603606081101561045357600080fd5b810190808035906020019064010000000081111561047057600080fd5b82018360208201111561048257600080fd5b803590602001918460208302840111640100000000831117156104a457600080fd5b9091929391929390803590602001906401000000008111156104c557600080fd5b8201836020820111156104d757600080fd5b803590602001918460208302840111640100000000831117156104f957600080fd5b90919293919293908035906020019064010000000081111561051a57600080fd5b82018360208201111561052c57600080fd5b8035906020019184602083028401116401000000008311171561054e57600080fd5b9091929391929390505050610e30565b60405180821515815260200191505060405180910390f35b61057e610f3e565b6040518080602001828103825283818151815260200191508051906020019080838360005b838110156105be5780820151818401526020810190506105a3565b50505050905090810190601f1680156105eb5780820380516001836020036101000a031916815260200191505b509250505060405180910390f35b6106456004803603604081101561060f57600080fd5b81019080803573ffffffffffffffffffffffffffffffffffffffff16906020019092919080359060200190929190505050610fdc565b60405180821515815260200191505060405180910390f35b61066561129f565b6040518082815260200191505060405180910390f35b6106836112a5565b6040518082815260200191505060405180910390f35b60038054600181600116156101000203166002900480601f01602080910402602001604051908101604052809291908181526020018280546001816001161561010002031660029004801561072f5780601f106107045761010080835404028352916020019161072f565b820191906000526020600020905b81548152906001019060200180831161071257829003601f168201915b505050505081565b600660003373ffffffffffffffffffffffffffffffffffffffff1673ffffffffffffffffffffffffffffffffffffffff16815260200190815260200160002060009054906101000a900460ff1661078d57600080fd5b6000600660008373ffffffffffffffffffffffffffffffffffffffff1673ffffffffffffffffffffffffffffffffffffffff16815260200190815260200160002060006101000a81548160ff02191690831515021790555050565b60008054905090565b6000600660003373ffffffffffffffffffffffffffffffffffffffff1673ffffffffffffffffffffffffffffffffffffffff16815260200190815260200160002060009054906101000a900460ff1661084957600080fd5b600073ffffffffffffffffffffffffffffffffffffffff168473ffffffffffffffffffffffffffffffffffffffff1614156108cf576040517f08c379a00000000000000000000000000000000000000000000000000000000081526004018080602001828103825260258152602001806113da6025913960400191505060405180910390fd5b600073ffffffffffffffffffffffffffffffffffffffff168373ffffffffffffffffffffffffffffffffffffffff161415610955576040517f08c379a00000000000000000000000000000000000000000000000000000000081526004018080602001828103825260238152602001806113b76023913960400191505060405180910390fd5b81600760008673ffffffffffffffffffffffffffffffffffffffff1673ffffffffffffffffffffffffffffffffffffffff1681526020019081526020016000205410156109a157600080fd5b6109f382600760008773ffffffffffffffffffffffffffffffffffffffff1673ffffffffffffffffffffffffffffffffffffffff168152602001908152602001600020546112ab90919063ffffffff16565b600760008673ffffffffffffffffffffffffffffffffffffffff1673ffffffffffffffffffffffffffffffffffffffff16815260200190815260200160002081905550610a8882600760008673ffffffffffffffffffffffffffffffffffffffff1673ffffffffffffffffffffffffffffffffffffffff1681526020019081526020016000205461132e90919063ffffffff16565b600760008573ffffffffffffffffffffffffffffffffffffffff1673ffffffffffffffffffffffffffffffffffffffff168152602001908152602001600020819055508273ffffffffffffffffffffffffffffffffffffffff168473ffffffffffffffffffffffffffffffffffffffff167fddf252ad1be2c89b69c2b068fc378daa952ba7f163c4a11628f55a4df523b3ef846040518082815260200191505060405180910390a3600190509392505050565b60076020528060005260406000206000915090505481565b600560009054906101000a900460ff1681565b600660003373ffffffffffffffffffffffffffffffffffffffff1673ffffffffffffffffffffffffffffffffffffffff16815260200190815260200160002060009054906101000a900460ff16610bbc57600080fd5b80600760008473ffffffffffffffffffffffffffffffffffffffff1673ffffffffffffffffffffffffffffffffffffffff168152602001908152602001600020541015610c0857600080fd5b610c5a81600760008573ffffffffffffffffffffffffffffffffffffffff1673ffffffffffffffffffffffffffffffffffffffff168152602001908152602001600020546112ab90919063ffffffff16565b600760008473ffffffffffffffffffffffffffffffffffffffff1673ffffffffffffffffffffffffffffffffffffffff16815260200190815260200160002081905550610cb2816002546112ab90919063ffffffff16565b6002819055508173ffffffffffffffffffffffffffffffffffffffff167ff3fef3a3f44f9c277339b67d54f015748bd8d6b77a985b0ab6e71126b018c34a826040518082815260200191505060405180910390a25050565b600560019054906101000a900473ffffffffffffffffffffffffffffffffffffffff1681565b600660003373ffffffffffffffffffffffffffffffffffffffff1673ffffffffffffffffffffffffffffffffffffffff16815260200190815260200160002060009054906101000a900460ff16610d8657600080fd5b6001600660008373ffffffffffffffffffffffffffffffffffffffff1673ffffffffffffffffffffffffffffffffffffffff16815260200190815260200160002060006101000a81548160ff02191690831515021790555050565b6000600760008373ffffffffffffffffffffffffffffffffffffffff1673ffffffffffffffffffffffffffffffffffffffff168152602001908152602001600020549050919050565b60005481565b6000600660003373ffffffffffffffffffffffffffffffffffffffff1673ffffffffffffffffffffffffffffffffffffffff16815260200190815260200160002060009054906101000a900460ff16610e8857600080fd5b848490508787905014610e9a57600080fd5b60005b878790508160ff161015610f2f57610f2188888360ff16818110610ebd57fe5b9050602002013573ffffffffffffffffffffffffffffffffffffffff1687878460ff16818110610ee957fe5b9050602002013573ffffffffffffffffffffffffffffffffffffffff1686868560ff16818110610f1557fe5b905060200201356107f1565b508080600101915050610e9d565b50600190509695505050505050565b60048054600181600116156101000203166002900480601f016020809104026020016040519081016040528092919081815260200182805460018160011615610100020316600290048015610fd45780601f10610fa957610100808354040283529160200191610fd4565b820191906000526020600020905b815481529060010190602001808311610fb757829003601f168201915b505050505081565b6000600660003373ffffffffffffffffffffffffffffffffffffffff1673ffffffffffffffffffffffffffffffffffffffff16815260200190815260200160002060009054906101000a900460ff1661103457600080fd5b600073ffffffffffffffffffffffffffffffffffffffff168373ffffffffffffffffffffffffffffffffffffffff1614156110ba576040517f08c379a00000000000000000000000000000000000000000000000000000000081526004018080602001828103825260238152602001806113b76023913960400191505060405180910390fd5b81600760003373ffffffffffffffffffffffffffffffffffffffff1673ffffffffffffffffffffffffffffffffffffffff16815260200190815260200160002054101561110657600080fd5b61115882600760003373ffffffffffffffffffffffffffffffffffffffff1673ffffffffffffffffffffffffffffffffffffffff168152602001908152602001600020546112ab90919063ffffffff16565b600760003373ffffffffffffffffffffffffffffffffffffffff1673ffffffffffffffffffffffffffffffffffffffff168152602001908152602001600020819055506111ed82600760008673ffffffffffffffffffffffffffffffffffffffff1673ffffffffffffffffffffffffffffffffffffffff1681526020019081526020016000205461132e90919063ffffffff16565b600760008573ffffffffffffffffffffffffffffffffffffffff1673ffffffffffffffffffffffffffffffffffffffff168152602001908152602001600020819055508273ffffffffffffffffffffffffffffffffffffffff163373ffffffffffffffffffffffffffffffffffffffff167fddf252ad1be2c89b69c2b068fc378daa952ba7f163c4a11628f55a4df523b3ef846040518082815260200191505060405180910390a36001905092915050565b60015481565b60025481565b600082821115611323576040517f08c379a000000000000000000000000000000000000000000000000000000000815260040180806020018281038252601e8152602001807f536166654d6174683a207375627472616374696f6e206f766572666c6f77000081525060200191505060405180910390fd5b818303905092915050565b6000808284019050838110156113ac576040517f08c379a000000000000000000000000000000000000000000000000000000000815260040180806020018281038252601b8152602001807f536166654d6174683a206164646974696f6e206f766572666c6f77000000000081525060200191505060405180910390fd5b809150509291505056fe45524332303a207472616e7366657220746f20746865207a65726f206164647265737345524332303a207472616e736665722066726f6d20746865207a65726f2061646472657373a26469706673582212202c57bf0a865d8f78faf87209b43c99e0ab6b5ecaadefa020a16d52a587f1ad5364736f6c63430007000033",
  "source": "pragma solidity ^0.7.0;\r\nimport \"@openzeppelin/contracts/math/SafeMath.sol\";\r\ncontract maturePropertyContract {\r\n    using SafeMath for uint256;\r\n    uint256 public totalarea;\r\n    uint256 public totaltokens;\r\n    uint256 public circulationsupply;\r\n    string public name;\r\n    string public symbol;\r\n    uint8 public decimals;\r\n    address public daowallet;\r\n    mapping(address => bool) admins;\r\n    mapping(address => uint256) public balances;\r\n    event Transfer(address indexed from, address indexed to, uint256 value);\r\n    event withdraw(address indexed from, uint256 amount);\r\n    constructor(uint256 _totalarea,string memory _name,string memory _symbol,uint8 _divisions)  {\r\n        admins[msg.sender] = true;\r\n        decimals = _divisions;\r\n        totalarea = _totalarea * (uint256(10) ** _divisions);\r\n        totaltokens = totalarea;\r\n        circulationsupply = totaltokens;\r\n        name = _name;\r\n        symbol = _symbol;\r\n        daowallet = msg.sender;\r\n        balances[daowallet] = circulationsupply;\r\n    }\r\n    function addAdmin(address _adminAddress) external onlyAdmin {\r\n        admins[_adminAddress] = true;\r\n    }\r\n    function removeAdmin(address _adminAddress) external onlyAdmin {\r\n        admins[_adminAddress] = false;\r\n    }\r\n    /* Transfer tokens from one investor to another (sell process) */\r\n    function transferFrom(\r\n        address _from,\r\n        address _to,\r\n        uint256 _amount\r\n    ) public onlyAdmin returns (bool) {\r\n        require(_from != address(0), \"ERC20: transfer from the zero address\");\r\n        require(_to != address(0), \"ERC20: transfer to the zero address\");\r\n        require(balances[_from] >= _amount);\r\n        balances[_from] = balances[_from].sub(_amount);\r\n        balances[_to] = balances[_to].add(_amount);\r\n        emit Transfer(_from, _to, _amount);\r\n        return true;\r\n    }\r\n    /* Function to issue tokens to new investors */\r\n    function transfer(address _to, uint256 _amount)\r\n        public\r\n        onlyAdmin\r\n        returns (bool)\r\n    {\r\n        //require(_from != address(0), \"ERC20: transfer from the zero address\");\r\n        require(_to != address(0), \"ERC20: transfer to the zero address\");\r\n        require(balances[msg.sender] >= _amount);\r\n        balances[msg.sender] = balances[msg.sender].sub(_amount);\r\n        balances[_to]= balances[_to].add(_amount);\r\n        emit Transfer(msg.sender, _to, _amount);\r\n        return true;\r\n    }\r\n    /* Liquidate tokens from investors.\t*/\r\n    function withdrawl(address _from, uint256 _amount) public onlyAdmin {\r\n        require(balances[_from] >= _amount);\r\n        balances[_from] = balances[_from].sub(_amount);\r\n        circulationsupply = circulationsupply.sub(_amount);\r\n        emit withdraw(_from, _amount);\r\n    }\r\n    /*  Function to lock tokens */\r\n    /* Fetch balance of user\t*/\r\n    function balanceOf(address _address) public view returns (uint256) {\r\n        return balances[_address];\r\n    }\r\n    /* fetch total tokens\t\t*/\r\n    function totalSupply() public view returns (uint256) {\r\n        return totalarea;\r\n    }\r\n    function multisend(address[] calldata _from, address[] calldata _to, uint256[] calldata _values ) public onlyAdmin returns (bool) {\r\n        require(_from.length == _to.length);\r\n        for (uint8 i; i < _from.length; i++) {\r\n        transferFrom(_from[i],_to[i],_values[i]);\r\n    }\r\n        return true;\r\n    }\r\n    /* if conditions for admin purposes.\r\n     */\r\n    modifier onlyAdmin() {\r\n        require(admins[msg.sender]);\r\n        _;\r\n    }\r\n}",
  "sourcePath": "G:/DAOPROPTECH/DAO-Identity-Managment-System/backend/blockchain/contracts/matureProperty.sol",
  "compiler": {
    "name": "solc",
    "version": "0.7.0+commit.a37b7b90.Emscripten.clang"
  },
  "schemaVersion": "2.0.1",
  "updatedAt": "2021-08-29T11:13:25.011Z"
}