{
  "contractName": "ProjectContract",
  "abi": [
    {
      "inputs": [
        {
          "internalType": "uint256",
          "name": "_totalarea",
          "type": "uint256"
        },
        {
          "internalType": "string",
          "name": "_name",
          "type": "string"
        },
        {
          "internalType": "string",
          "name": "_symbol",
          "type": "string"
        },
        {
          "internalType": "uint8",
          "name": "_divisions",
          "type": "uint8"
        }
      ],
      "stateMutability": "nonpayable",
      "type": "constructor"
    },
    {
      "anonymous": false,
      "inputs": [
        {
          "indexed": true,
          "internalType": "address",
          "name": "from",
          "type": "address"
        },
        {
          "indexed": true,
          "internalType": "address",
          "name": "to",
          "type": "address"
        },
        {
          "indexed": false,
          "internalType": "uint256",
          "name": "value",
          "type": "uint256"
        }
      ],
      "name": "Transfer",
      "type": "event"
    },
    {
      "anonymous": false,
      "inputs": [
        {
          "indexed": false,
          "internalType": "string",
          "name": "",
          "type": "string"
        },
        {
          "indexed": false,
          "internalType": "uint256",
          "name": "",
          "type": "uint256"
        }
      ],
      "name": "lockfunds",
      "type": "event"
    },
    {
      "anonymous": false,
      "inputs": [
        {
          "indexed": false,
          "internalType": "string",
          "name": "",
          "type": "string"
        }
      ],
      "name": "unlockedfunds",
      "type": "event"
    },
    {
      "anonymous": false,
      "inputs": [
        {
          "indexed": true,
          "internalType": "address",
          "name": "from",
          "type": "address"
        },
        {
          "indexed": false,
          "internalType": "uint256",
          "name": "amount",
          "type": "uint256"
        }
      ],
      "name": "withdraw",
      "type": "event"
    },
    {
      "inputs": [
        {
          "internalType": "address",
          "name": "",
          "type": "address"
        }
      ],
      "name": "balances",
      "outputs": [
        {
          "internalType": "uint256",
          "name": "",
          "type": "uint256"
        }
      ],
      "stateMutability": "view",
      "type": "function"
    },
    {
      "inputs": [],
      "name": "circulationsupply",
      "outputs": [
        {
          "internalType": "uint256",
          "name": "",
          "type": "uint256"
        }
      ],
      "stateMutability": "view",
      "type": "function"
    },
    {
      "inputs": [],
      "name": "daowallet",
      "outputs": [
        {
          "internalType": "address",
          "name": "",
          "type": "address"
        }
      ],
      "stateMutability": "view",
      "type": "function"
    },
    {
      "inputs": [],
      "name": "decimals",
      "outputs": [
        {
          "internalType": "uint8",
          "name": "",
          "type": "uint8"
        }
      ],
      "stateMutability": "view",
      "type": "function"
    },
    {
      "inputs": [],
      "name": "name",
      "outputs": [
        {
          "internalType": "string",
          "name": "",
          "type": "string"
        }
      ],
      "stateMutability": "view",
      "type": "function"
    },
    {
      "inputs": [],
      "name": "symbol",
      "outputs": [
        {
          "internalType": "string",
          "name": "",
          "type": "string"
        }
      ],
      "stateMutability": "view",
      "type": "function"
    },
    {
      "inputs": [],
      "name": "timelockcontractaddress",
      "outputs": [
        {
          "internalType": "address",
          "name": "",
          "type": "address"
        }
      ],
      "stateMutability": "view",
      "type": "function"
    },
    {
      "inputs": [],
      "name": "totalarea",
      "outputs": [
        {
          "internalType": "uint256",
          "name": "",
          "type": "uint256"
        }
      ],
      "stateMutability": "view",
      "type": "function"
    },
    {
      "inputs": [],
      "name": "totaltokens",
      "outputs": [
        {
          "internalType": "uint256",
          "name": "",
          "type": "uint256"
        }
      ],
      "stateMutability": "view",
      "type": "function"
    },
    {
      "inputs": [
        {
          "internalType": "address",
          "name": "_adminAddress",
          "type": "address"
        }
      ],
      "name": "addAdmin",
      "outputs": [],
      "stateMutability": "nonpayable",
      "type": "function"
    },
    {
      "inputs": [
        {
          "internalType": "address",
          "name": "_adminAddress",
          "type": "address"
        }
      ],
      "name": "removeAdmin",
      "outputs": [],
      "stateMutability": "nonpayable",
      "type": "function"
    },
    {
      "inputs": [
        {
          "internalType": "address",
          "name": "_from",
          "type": "address"
        },
        {
          "internalType": "address",
          "name": "_to",
          "type": "address"
        },
        {
          "internalType": "uint256",
          "name": "_amount",
          "type": "uint256"
        }
      ],
      "name": "transferFrom",
      "outputs": [
        {
          "internalType": "bool",
          "name": "",
          "type": "bool"
        }
      ],
      "stateMutability": "nonpayable",
      "type": "function"
    },
    {
      "inputs": [
        {
          "internalType": "address",
          "name": "_to",
          "type": "address"
        },
        {
          "internalType": "uint256",
          "name": "_amount",
          "type": "uint256"
        }
      ],
      "name": "transfer",
      "outputs": [
        {
          "internalType": "bool",
          "name": "",
          "type": "bool"
        }
      ],
      "stateMutability": "nonpayable",
      "type": "function"
    },
    {
      "inputs": [
        {
          "internalType": "address",
          "name": "_from",
          "type": "address"
        },
        {
          "internalType": "uint256",
          "name": "_amount",
          "type": "uint256"
        }
      ],
      "name": "withdrawl",
      "outputs": [],
      "stateMutability": "nonpayable",
      "type": "function"
    },
    {
      "inputs": [
        {
          "internalType": "string",
          "name": "_name",
          "type": "string"
        },
        {
          "internalType": "uint256",
          "name": "_tokens",
          "type": "uint256"
        },
        {
          "internalType": "uint256",
          "name": "_starttime",
          "type": "uint256"
        },
        {
          "internalType": "uint256",
          "name": "_endtime",
          "type": "uint256"
        }
      ],
      "name": "developmentRounds",
      "outputs": [
        {
          "internalType": "bool",
          "name": "success",
          "type": "bool"
        }
      ],
      "stateMutability": "nonpayable",
      "type": "function"
    },
    {
      "inputs": [
        {
          "internalType": "string",
          "name": "_name",
          "type": "string"
        }
      ],
      "name": "releasefunds",
      "outputs": [],
      "stateMutability": "nonpayable",
      "type": "function"
    },
    {
      "inputs": [
        {
          "internalType": "uint256",
          "name": "_amount",
          "type": "uint256"
        }
      ],
      "name": "deposittimelock",
      "outputs": [],
      "stateMutability": "nonpayable",
      "type": "function"
    },
    {
      "inputs": [
        {
          "internalType": "string",
          "name": "_name",
          "type": "string"
        }
      ],
      "name": "getvestingdetails",
      "outputs": [
        {
          "internalType": "uint256",
          "name": "",
          "type": "uint256"
        },
        {
          "internalType": "uint256",
          "name": "",
          "type": "uint256"
        },
        {
          "internalType": "uint256",
          "name": "",
          "type": "uint256"
        },
        {
          "internalType": "address",
          "name": "",
          "type": "address"
        }
      ],
      "stateMutability": "view",
      "type": "function"
    },
    {
      "inputs": [
        {
          "internalType": "address",
          "name": "_address",
          "type": "address"
        }
      ],
      "name": "balanceOf",
      "outputs": [
        {
          "internalType": "uint256",
          "name": "",
          "type": "uint256"
        }
      ],
      "stateMutability": "view",
      "type": "function"
    },
    {
      "inputs": [],
      "name": "totalSupply",
      "outputs": [
        {
          "internalType": "uint256",
          "name": "",
          "type": "uint256"
        }
      ],
      "stateMutability": "view",
      "type": "function"
    }
  ],
  "bytecode": "0x60806040523480156200001157600080fd5b50d380156200001f57600080fd5b50d280156200002d57600080fd5b5060405162002e2238038062002e22833981810160405260808110156200005357600080fd5b8101908080519060200190929190805160405193929190846401000000008211156200007e57600080fd5b838201915060208201858111156200009557600080fd5b8251866001820283011164010000000082111715620000b357600080fd5b8083526020830192505050908051906020019080838360005b83811015620000e9578082015181840152602081019050620000cc565b50505050905090810190601f168015620001175780820380516001836020036101000a031916815260200191505b50604052602001805160405193929190846401000000008211156200013b57600080fd5b838201915060208201858111156200015257600080fd5b82518660018202830111640100000000821117156200017057600080fd5b8083526020830192505050908051906020019080838360005b83811015620001a657808201518184015260208101905062000189565b50505050905090810190601f168015620001d45780820380516001836020036101000a031916815260200191505b50604052602001805190602001909291905050506001600760003373ffffffffffffffffffffffffffffffffffffffff1673ffffffffffffffffffffffffffffffffffffffff16815260200190815260200160002060006101000a81548160ff02191690831515021790555080600560006101000a81548160ff021916908360ff1602179055508060ff16600a0a840260008190555060005460018190555060015460028190555082600390805190602001906200029492919062000406565b508160049080519060200190620002ad92919062000406565b5033600560016101000a81548173ffffffffffffffffffffffffffffffffffffffff021916908373ffffffffffffffffffffffffffffffffffffffff16021790555060025460086000600560019054906101000a900473ffffffffffffffffffffffffffffffffffffffff1673ffffffffffffffffffffffffffffffffffffffff1673ffffffffffffffffffffffffffffffffffffffff16815260200190815260200160002081905550620003676200037160201b60201c565b50505050620004ba565b60003060405162000382906200048d565b808273ffffffffffffffffffffffffffffffffffffffff168152602001915050604051809103906000f080158015620003bf573d6000803e3d6000fd5b50905080600660006101000a81548173ffffffffffffffffffffffffffffffffffffffff021916908373ffffffffffffffffffffffffffffffffffffffff16021790555050565b828054600181600116156101000203166002900490600052602060002090601f016020900481019282601f106200044957805160ff19168380011785556200047a565b828001600101855582156200047a579182015b82811115620004795782518255916020019190600101906200045c565b5b5090506200048991906200049b565b5090565b610c2680620021fc83390190565b5b80821115620004b65760008160009055506001016200049c565b5090565b611d3280620004ca6000396000f3fe608060405234801561001057600080fd5b50d3801561001d57600080fd5b50d2801561002a57600080fd5b50600436106101465760003560e01c806370a08231116100c7578063ad67db941161008b578063ad67db941461067e578063ba8b85161461069c578063c5aa1377146106ba578063da85a8a5146106e8578063f905cc1b146107a357610146565b806370a08231146104ed5780637be1ecf714610545578063893a626f1461057957806395d89b4114610597578063a9059cbb1461061a57610146565b8063313ce5671161010e578063313ce5671461030c578063592704c51461032d5780635afbed9214610427578063645ffc461461047557806370480275146104a957610146565b806306fdde031461014b5780631785f53c146101ce57806318160ddd1461021257806323b872dd1461023057806327e235e3146102b4575b600080fd5b610153610892565b6040518080602001828103825283818151815260200191508051906020019080838360005b83811015610193578082015181840152602081019050610178565b50505050905090810190601f1680156101c05780820380516001836020036101000a031916815260200191505b509250505060405180910390f35b610210600480360360208110156101e457600080fd5b81019080803573ffffffffffffffffffffffffffffffffffffffff169060200190929190505050610930565b005b61021a6109e1565b6040518082815260200191505060405180910390f35b61029c6004803603606081101561024657600080fd5b81019080803573ffffffffffffffffffffffffffffffffffffffff169060200190929190803573ffffffffffffffffffffffffffffffffffffffff169060200190929190803590602001909291905050506109ea565b60405180821515815260200191505060405180910390f35b6102f6600480360360208110156102ca57600080fd5b81019080803573ffffffffffffffffffffffffffffffffffffffff169060200190929190505050610d34565b6040518082815260200191505060405180910390f35b610314610d4c565b604051808260ff16815260200191505060405180910390f35b6103e66004803603602081101561034357600080fd5b810190808035906020019064010000000081111561036057600080fd5b82018360208201111561037257600080fd5b8035906020019184600183028401116401000000008311171561039457600080fd5b91908080601f016020809104026020016040519081016040528093929190818152602001838380828437600081840152601f19601f820116905080830192505050505050509192919290505050610d5f565b604051808581526020018481526020018381526020018273ffffffffffffffffffffffffffffffffffffffff16815260200194505050505060405180910390f35b6104736004803603604081101561043d57600080fd5b81019080803573ffffffffffffffffffffffffffffffffffffffff16906020019092919080359060200190929190505050610eab565b005b61047d61104f565b604051808273ffffffffffffffffffffffffffffffffffffffff16815260200191505060405180910390f35b6104eb600480360360208110156104bf57600080fd5b81019080803573ffffffffffffffffffffffffffffffffffffffff169060200190929190505050611075565b005b61052f6004803603602081101561050357600080fd5b81019080803573ffffffffffffffffffffffffffffffffffffffff169060200190929190505050611126565b6040518082815260200191505060405180910390f35b61054d61116f565b604051808273ffffffffffffffffffffffffffffffffffffffff16815260200191505060405180910390f35b610581611195565b6040518082815260200191505060405180910390f35b61059f61119b565b6040518080602001828103825283818151815260200191508051906020019080838360005b838110156105df5780820151818401526020810190506105c4565b50505050905090810190601f16801561060c5780820380516001836020036101000a031916815260200191505b509250505060405180910390f35b6106666004803603604081101561063057600080fd5b81019080803573ffffffffffffffffffffffffffffffffffffffff16906020019092919080359060200190929190505050611239565b60405180821515815260200191505060405180910390f35b6106866114fc565b6040518082815260200191505060405180910390f35b6106a4611502565b6040518082815260200191505060405180910390f35b6106e6600480360360208110156106d057600080fd5b8101908080359060200190929190505050611508565b005b6107a1600480360360208110156106fe57600080fd5b810190808035906020019064010000000081111561071b57600080fd5b82018360208201111561072d57600080fd5b8035906020019184600183028401116401000000008311171561074f57600080fd5b91908080601f016020809104026020016040519081016040528093929190818152602001838380828437600081840152601f19601f820116905080830192505050505050509192919290505050611659565b005b61087a600480360360808110156107b957600080fd5b81019080803590602001906401000000008111156107d657600080fd5b8201836020820111156107e857600080fd5b8035906020019184600183028401116401000000008311171561080a57600080fd5b91908080601f016020809104026020016040519081016040528093929190818152602001838380828437600081840152601f19601f82011690508083019250505050505050919291929080359060200190929190803590602001909291908035906020019092919050505061186a565b60405180821515815260200191505060405180910390f35b60038054600181600116156101000203166002900480601f0160208091040260200160405190810160405280929190818152602001828054600181600116156101000203166002900480156109285780601f106108fd57610100808354040283529160200191610928565b820191906000526020600020905b81548152906001019060200180831161090b57829003601f168201915b505050505081565b600760003373ffffffffffffffffffffffffffffffffffffffff1673ffffffffffffffffffffffffffffffffffffffff16815260200190815260200160002060009054906101000a900460ff1661098657600080fd5b6000600760008373ffffffffffffffffffffffffffffffffffffffff1673ffffffffffffffffffffffffffffffffffffffff16815260200190815260200160002060006101000a81548160ff02191690831515021790555050565b60008054905090565b6000600760003373ffffffffffffffffffffffffffffffffffffffff1673ffffffffffffffffffffffffffffffffffffffff16815260200190815260200160002060009054906101000a900460ff16610a4257600080fd5b600073ffffffffffffffffffffffffffffffffffffffff168473ffffffffffffffffffffffffffffffffffffffff161415610ac8576040517f08c379a0000000000000000000000000000000000000000000000000000000008152600401808060200182810382526025815260200180611cd86025913960400191505060405180910390fd5b600073ffffffffffffffffffffffffffffffffffffffff168373ffffffffffffffffffffffffffffffffffffffff161415610b4e576040517f08c379a0000000000000000000000000000000000000000000000000000000008152600401808060200182810382526023815260200180611cb56023913960400191505060405180910390fd5b81600860008673ffffffffffffffffffffffffffffffffffffffff1673ffffffffffffffffffffffffffffffffffffffff168152602001908152602001600020541015610b9a57600080fd5b610bec82600860008773ffffffffffffffffffffffffffffffffffffffff1673ffffffffffffffffffffffffffffffffffffffff16815260200190815260200160002054611ba990919063ffffffff16565b600860008673ffffffffffffffffffffffffffffffffffffffff1673ffffffffffffffffffffffffffffffffffffffff16815260200190815260200160002081905550610c8182600860008673ffffffffffffffffffffffffffffffffffffffff1673ffffffffffffffffffffffffffffffffffffffff16815260200190815260200160002054611c2c90919063ffffffff16565b600860008573ffffffffffffffffffffffffffffffffffffffff1673ffffffffffffffffffffffffffffffffffffffff168152602001908152602001600020819055508273ffffffffffffffffffffffffffffffffffffffff168473ffffffffffffffffffffffffffffffffffffffff167fddf252ad1be2c89b69c2b068fc378daa952ba7f163c4a11628f55a4df523b3ef846040518082815260200191505060405180910390a3600190509392505050565b60086020528060005260406000206000915090505481565b600560009054906101000a900460ff1681565b6000806000806000600660009054906101000a900473ffffffffffffffffffffffffffffffffffffffff1690508073ffffffffffffffffffffffffffffffffffffffff1663592704c5876040518263ffffffff1660e01b81526004018080602001828103825283818151815260200191508051906020019080838360005b83811015610df8578082015181840152602081019050610ddd565b50505050905090810190601f168015610e255780820380516001836020036101000a031916815260200191505b509250505060806040518083038186803b158015610e4257600080fd5b505afa158015610e56573d6000803e3d6000fd5b505050506040513d6080811015610e6c57600080fd5b81019080805190602001909291908051906020019092919080519060200190929190805190602001909291905050509450945094509450509193509193565b600760003373ffffffffffffffffffffffffffffffffffffffff1673ffffffffffffffffffffffffffffffffffffffff16815260200190815260200160002060009054906101000a900460ff16610f0157600080fd5b80600860008473ffffffffffffffffffffffffffffffffffffffff1673ffffffffffffffffffffffffffffffffffffffff168152602001908152602001600020541015610f4d57600080fd5b610f9f81600860008573ffffffffffffffffffffffffffffffffffffffff1673ffffffffffffffffffffffffffffffffffffffff16815260200190815260200160002054611ba990919063ffffffff16565b600860008473ffffffffffffffffffffffffffffffffffffffff1673ffffffffffffffffffffffffffffffffffffffff16815260200190815260200160002081905550610ff781600254611ba990919063ffffffff16565b6002819055508173ffffffffffffffffffffffffffffffffffffffff167ff3fef3a3f44f9c277339b67d54f015748bd8d6b77a985b0ab6e71126b018c34a826040518082815260200191505060405180910390a25050565b600560019054906101000a900473ffffffffffffffffffffffffffffffffffffffff1681565b600760003373ffffffffffffffffffffffffffffffffffffffff1673ffffffffffffffffffffffffffffffffffffffff16815260200190815260200160002060009054906101000a900460ff166110cb57600080fd5b6001600760008373ffffffffffffffffffffffffffffffffffffffff1673ffffffffffffffffffffffffffffffffffffffff16815260200190815260200160002060006101000a81548160ff02191690831515021790555050565b6000600860008373ffffffffffffffffffffffffffffffffffffffff1673ffffffffffffffffffffffffffffffffffffffff168152602001908152602001600020549050919050565b600660009054906101000a900473ffffffffffffffffffffffffffffffffffffffff1681565b60005481565b60048054600181600116156101000203166002900480601f0160208091040260200160405190810160405280929190818152602001828054600181600116156101000203166002900480156112315780601f1061120657610100808354040283529160200191611231565b820191906000526020600020905b81548152906001019060200180831161121457829003601f168201915b505050505081565b6000600760003373ffffffffffffffffffffffffffffffffffffffff1673ffffffffffffffffffffffffffffffffffffffff16815260200190815260200160002060009054906101000a900460ff1661129157600080fd5b600073ffffffffffffffffffffffffffffffffffffffff168373ffffffffffffffffffffffffffffffffffffffff161415611317576040517f08c379a0000000000000000000000000000000000000000000000000000000008152600401808060200182810382526023815260200180611cb56023913960400191505060405180910390fd5b81600860003373ffffffffffffffffffffffffffffffffffffffff1673ffffffffffffffffffffffffffffffffffffffff16815260200190815260200160002054101561136357600080fd5b6113b582600860003373ffffffffffffffffffffffffffffffffffffffff1673ffffffffffffffffffffffffffffffffffffffff16815260200190815260200160002054611ba990919063ffffffff16565b600860003373ffffffffffffffffffffffffffffffffffffffff1673ffffffffffffffffffffffffffffffffffffffff1681526020019081526020016000208190555061144a82600860008673ffffffffffffffffffffffffffffffffffffffff1673ffffffffffffffffffffffffffffffffffffffff16815260200190815260200160002054611c2c90919063ffffffff16565b600860008573ffffffffffffffffffffffffffffffffffffffff1673ffffffffffffffffffffffffffffffffffffffff168152602001908152602001600020819055508273ffffffffffffffffffffffffffffffffffffffff163373ffffffffffffffffffffffffffffffffffffffff167fddf252ad1be2c89b69c2b068fc378daa952ba7f163c4a11628f55a4df523b3ef846040518082815260200191505060405180910390a36001905092915050565b60015481565b60025481565b600660009054906101000a900473ffffffffffffffffffffffffffffffffffffffff1673ffffffffffffffffffffffffffffffffffffffff163373ffffffffffffffffffffffffffffffffffffffff161461156257600080fd5b6115d68160086000600560019054906101000a900473ffffffffffffffffffffffffffffffffffffffff1673ffffffffffffffffffffffffffffffffffffffff1673ffffffffffffffffffffffffffffffffffffffff16815260200190815260200160002054611c2c90919063ffffffff16565b60086000600560019054906101000a900473ffffffffffffffffffffffffffffffffffffffff1673ffffffffffffffffffffffffffffffffffffffff1673ffffffffffffffffffffffffffffffffffffffff1681526020019081526020016000208190555061165081600254611c2c90919063ffffffff16565b60028190555050565b600760003373ffffffffffffffffffffffffffffffffffffffff1673ffffffffffffffffffffffffffffffffffffffff16815260200190815260200160002060009054906101000a900460ff166116af57600080fd5b6000600660009054906101000a900473ffffffffffffffffffffffffffffffffffffffff1690508073ffffffffffffffffffffffffffffffffffffffff1663bdb04c79836040518263ffffffff1660e01b81526004018080602001828103825283818151815260200191508051906020019080838360005b83811015611742578082015181840152602081019050611727565b50505050905090810190601f16801561176f5780820380516001836020036101000a031916815260200191505b5092505050602060405180830381600087803b15801561178e57600080fd5b505af11580156117a2573d6000803e3d6000fd5b505050506040513d60208110156117b857600080fd5b8101908080519060200190929190505050507fc3c096f351c2fa496483baf70143c6a5252fb2f31e5ca14657f95f88e91fe728826040518080602001828103825283818151815260200191508051906020019080838360005b8381101561182c578082015181840152602081019050611811565b50505050905090810190601f1680156118595780820380516001836020036101000a031916815260200191505b509250505060405180910390a15050565b6000600760003373ffffffffffffffffffffffffffffffffffffffff1673ffffffffffffffffffffffffffffffffffffffff16815260200190815260200160002060009054906101000a900460ff166118c257600080fd5b6002548411156118d157600080fd5b6000600660009054906101000a900473ffffffffffffffffffffffffffffffffffffffff16905061196c8560086000600560019054906101000a900473ffffffffffffffffffffffffffffffffffffffff1673ffffffffffffffffffffffffffffffffffffffff1673ffffffffffffffffffffffffffffffffffffffff16815260200190815260200160002054611ba990919063ffffffff16565b60086000600560019054906101000a900473ffffffffffffffffffffffffffffffffffffffff1673ffffffffffffffffffffffffffffffffffffffff1673ffffffffffffffffffffffffffffffffffffffff168152602001908152602001600020819055506119e685600254611ba990919063ffffffff16565b6002819055508073ffffffffffffffffffffffffffffffffffffffff1663db89adf5878787876040518563ffffffff1660e01b81526004018080602001858152602001848152602001838152602001828103825286818151815260200191508051906020019080838360005b83811015611a6d578082015181840152602081019050611a52565b50505050905090810190601f168015611a9a5780820380516001836020036101000a031916815260200191505b5095505050505050602060405180830381600087803b158015611abc57600080fd5b505af1158015611ad0573d6000803e3d6000fd5b505050506040513d6020811015611ae657600080fd5b8101908080519060200190929190505050507f741c9194b14938fc0bfeafeb4f8a97128a76499aebffcad374bb0a7920cd340586866040518080602001838152602001828103825284818151815260200191508051906020019080838360005b83811015611b61578082015181840152602081019050611b46565b50505050905090810190601f168015611b8e5780820380516001836020036101000a031916815260200191505b50935050505060405180910390a16001915050949350505050565b600082821115611c21576040517f08c379a000000000000000000000000000000000000000000000000000000000815260040180806020018281038252601e8152602001807f536166654d6174683a207375627472616374696f6e206f766572666c6f77000081525060200191505060405180910390fd5b818303905092915050565b600080828401905083811015611caa576040517f08c379a000000000000000000000000000000000000000000000000000000000815260040180806020018281038252601b8152602001807f536166654d6174683a206164646974696f6e206f766572666c6f77000000000081525060200191505060405180910390fd5b809150509291505056fe45524332303a207472616e7366657220746f20746865207a65726f206164647265737345524332303a207472616e736665722066726f6d20746865207a65726f2061646472657373a26469706673582212209b0c3880565f1e94e4424f1b0ce8eb2da398546627d669f3fa579ce4f8e6885c64736f6c63430007000033608060405234801561001057600080fd5b50d3801561001d57600080fd5b50d2801561002a57600080fd5b50604051610c26380380610c268339818101604052602081101561004d57600080fd5b810190808051906020019092919050505080600160006101000a81548173ffffffffffffffffffffffffffffffffffffffff021916908373ffffffffffffffffffffffffffffffffffffffff160217905550806000806101000a81548173ffffffffffffffffffffffffffffffffffffffff021916908373ffffffffffffffffffffffffffffffffffffffff16021790555050610b37806100ef6000396000f3fe60806040526004361061004a5760003560e01c806335b5b1c61461004f578063592704c5146100aa578063bdb04c79146101cb578063d050f79c1461029c578063db89adf5146103bd575b600080fd5b34801561005b57600080fd5b50d3801561006857600080fd5b50d2801561007557600080fd5b5061007e6104d3565b604051808273ffffffffffffffffffffffffffffffffffffffff16815260200191505060405180910390f35b3480156100b657600080fd5b50d380156100c357600080fd5b50d280156100d057600080fd5b5061018a600480360360208110156100e757600080fd5b810190808035906020019064010000000081111561010457600080fd5b82018360208201111561011657600080fd5b8035906020019184600183028401116401000000008311171561013857600080fd5b91908080601f016020809104026020016040519081016040528093929190818152602001838380828437600081840152601f19601f8201169050808301925050505050505091929192905050506104f7565b604051808581526020018481526020018381526020018273ffffffffffffffffffffffffffffffffffffffff16815260200194505050505060405180910390f35b610284600480360360208110156101e157600080fd5b81019080803590602001906401000000008111156101fe57600080fd5b82018360208201111561021057600080fd5b8035906020019184600183028401116401000000008311171561023257600080fd5b91908080601f016020809104026020016040519081016040528093929190818152602001838380828437600081840152601f19601f8201169050808301925050505050505091929192905050506106e0565b60405180821515815260200191505060405180910390f35b3480156102a857600080fd5b50d380156102b557600080fd5b50d280156102c257600080fd5b5061037c600480360360208110156102d957600080fd5b81019080803590602001906401000000008111156102f657600080fd5b82018360208201111561030857600080fd5b8035906020019184600183028401116401000000008311171561032a57600080fd5b91908080601f016020809104026020016040519081016040528093929190818152602001838380828437600081840152601f19601f82011690508083019250505050505050919291929050505061092d565b604051808581526020018481526020018381526020018273ffffffffffffffffffffffffffffffffffffffff16815260200194505050505060405180910390f35b3480156103c957600080fd5b50d380156103d657600080fd5b50d280156103e357600080fd5b506104bb600480360360808110156103fa57600080fd5b810190808035906020019064010000000081111561041757600080fd5b82018360208201111561042957600080fd5b8035906020019184600183028401116401000000008311171561044b57600080fd5b91908080601f016020809104026020016040519081016040528093929190818152602001838380828437600081840152601f19601f820116905080830192505050505050509192919290803590602001909291908035906020019092919080359060200190929190505050610993565b60405180821515815260200191505060405180910390f35b60008054906101000a900473ffffffffffffffffffffffffffffffffffffffff1681565b6000806000806002856040518082805190602001908083835b602083106105335780518252602082019150602081019050602083039250610510565b6001836020036101000a0380198251168184511680821785525050505050509050019150509081526020016040518091039020600001546002866040518082805190602001908083835b602083106105a0578051825260208201915060208101905060208303925061057d565b6001836020036101000a0380198251168184511680821785525050505050509050019150509081526020016040518091039020600101546002876040518082805190602001908083835b6020831061060d57805182526020820191506020810190506020830392506105ea565b6001836020036101000a0380198251168184511680821785525050505050509050019150509081526020016040518091039020600201546002886040518082805190602001908083835b6020831061067a5780518252602082019150602081019050602083039250610657565b6001836020036101000a038019825116818451168082178552505050505050905001915050908152602001604051809103902060030160009054906101000a900473ffffffffffffffffffffffffffffffffffffffff1693509350935093509193509193565b60003373ffffffffffffffffffffffffffffffffffffffff1660008054906101000a900473ffffffffffffffffffffffffffffffffffffffff1673ffffffffffffffffffffffffffffffffffffffff161461073a57600080fd5b426002836040518082805190602001908083835b60208310610771578051825260208201915060208101905060208303925061074e565b6001836020036101000a03801982511681845116808217855250505050505090500191505090815260200160405180910390206001015411156107b357600080fd5b60006002836040518082805190602001908083835b602083106107eb57805182526020820191506020810190506020830392506107c8565b6001836020036101000a038019825116818451168082178552505050505050905001915050908152602001604051809103902060000154905060006002846040518082805190602001908083835b6020831061085c5780518252602082019150602081019050602083039250610839565b6001836020036101000a038019825116818451168082178552505050505050905001915050908152602001604051809103902060000181905550600160009054906101000a900473ffffffffffffffffffffffffffffffffffffffff1673ffffffffffffffffffffffffffffffffffffffff1663c5aa1377826040518263ffffffff1660e01b815260040180828152602001915050600060405180830381600087803b15801561090b57600080fd5b505af115801561091f573d6000803e3d6000fd5b505050506001915050919050565b6002818051602081018201805184825260208301602085012081835280955050505050506000915090508060000154908060010154908060020154908060030160009054906101000a900473ffffffffffffffffffffffffffffffffffffffff16905084565b60003373ffffffffffffffffffffffffffffffffffffffff1660008054906101000a900473ffffffffffffffffffffffffffffffffffffffff1673ffffffffffffffffffffffffffffffffffffffff16146109ed57600080fd5b60405180608001604052808581526020018481526020018381526020013373ffffffffffffffffffffffffffffffffffffffff168152506002866040518082805190602001908083835b60208310610a5a5780518252602082019150602081019050602083039250610a37565b6001836020036101000a038019825116818451168082178552505050505050905001915050908152602001604051809103902060008201518160000155602082015181600101556040820151816002015560608201518160030160006101000a81548173ffffffffffffffffffffffffffffffffffffffff021916908373ffffffffffffffffffffffffffffffffffffffff1602179055509050506001905094935050505056fea2646970667358221220676f8b0bb6831edf2bbc8b9e7ca6f5762fd5237ec28d0d1935342a91d48c83c264736f6c63430007000033",
  "source": "pragma solidity ^0.7.0;\r\nimport \"@openzeppelin/contracts/math/SafeMath.sol\";\r\n\r\ncontract ProjectContract {\r\n    using SafeMath for uint256;\r\n    uint256 public totalarea;\r\n    uint256 public totaltokens;\r\n    uint256 public circulationsupply;\r\n    string public name;\r\n    string public symbol;\r\n    uint8 public decimals;\r\n\r\n    address public daowallet;\r\n    address public timelockcontractaddress;\r\n\r\n  \r\n    mapping(address => bool) admins;\r\n    mapping(address => uint256) public balances;\r\n\r\n    event Transfer(address indexed from, address indexed to, uint256 value);\r\n    event withdraw(address indexed from, uint256 amount);\r\n    event unlockedfunds(string);\r\n    event lockfunds(string, uint256);\r\n\r\n    constructor(\r\n        uint256 _totalarea,\r\n        string memory _name,\r\n        string memory _symbol,\r\n        uint8 _divisions\r\n    ) public {\r\n        admins[msg.sender] = true;\r\n        decimals = _divisions;\r\n        totalarea = _totalarea * (uint256(10) ** _divisions);\r\n        totaltokens = totalarea;\r\n        circulationsupply = totaltokens;\r\n        name = _name;\r\n        symbol = _symbol;\r\n       \r\n        daowallet = msg.sender;\r\n        balances[daowallet] = circulationsupply;\r\n\r\n        //  Fire up timelock contract\r\n\r\n        timelockcontract();\r\n    }\r\n\r\n    function timelockcontract() internal {\r\n        // sending parent contract address to timelock contract so that functions of timelock contract can only be called by parent contract.\r\n        ProjectTimeLock timelock = new ProjectTimeLock(address(this));\r\n\r\n        // storing timelock contract address in parent contract for documentation purposes.\r\n        timelockcontractaddress = address(timelock);\r\n    }\r\n\r\n    function addAdmin(address _adminAddress) external onlyAdmin {\r\n        admins[_adminAddress] = true;\r\n    }\r\n\r\n    function removeAdmin(address _adminAddress) external onlyAdmin {\r\n        admins[_adminAddress] = false;\r\n    }\r\n\r\n\r\n    /* Transfer tokens from one investor to another (sell process) */\r\n\r\n    function transferFrom(\r\n        address _from,\r\n        address _to,\r\n        uint256 _amount\r\n    ) public onlyAdmin returns (bool) {\r\n        require(_from != address(0), \"ERC20: transfer from the zero address\");\r\n        require(_to != address(0), \"ERC20: transfer to the zero address\");\r\n        require(balances[_from] >= _amount);\r\n        balances[_from] = balances[_from].sub(_amount);\r\n        balances[_to] = balances[_to].add(_amount);\r\n        //   balances[_from] = balances[_from]-amount;\r\n        // balances[_to] = balances[_to]+ amount;\r\n        emit Transfer(_from, _to, _amount);\r\n        return true;\r\n    }\r\n\r\n    /* Function to issue tokens to new investors */\r\n\r\n    function transfer(address _to, uint256 _amount)\r\n        public\r\n        onlyAdmin\r\n        returns (bool)\r\n    {\r\n        //require(_from != address(0), \"ERC20: transfer from the zero address\");\r\n        require(_to != address(0), \"ERC20: transfer to the zero address\");\r\n        require(balances[msg.sender] >= _amount);\r\n        balances[msg.sender] = balances[msg.sender].sub(_amount);\r\n        balances[_to]= balances[_to].add(_amount);\r\n        emit Transfer(msg.sender, _to, _amount);\r\n        return true;\r\n    }\r\n\r\n    /* Liquidate tokens from investors.\t*/\r\n\r\n    function withdrawl(address _from, uint256 _amount) public onlyAdmin {\r\n        require(balances[_from] >= _amount);\r\n        balances[_from] = balances[_from].sub(_amount);\r\n        circulationsupply = circulationsupply.sub(_amount);\r\n        emit withdraw(_from, _amount);\r\n    }\r\n\r\n    /*  Function to lock tokens */\r\n\r\n    function developmentRounds(\r\n        string memory _name,\r\n        uint256 _tokens,\r\n        uint256 _starttime,\r\n        uint256 _endtime\r\n    ) public onlyAdmin returns (bool success) {\r\n        require(_tokens <= circulationsupply);\r\n        ProjectTimeLock timelock = ProjectTimeLock(timelockcontractaddress);\r\n        balances[daowallet] = balances[daowallet].sub(_tokens);\r\n        circulationsupply = circulationsupply.sub(_tokens);\r\n        timelock.depositaddress(_name, _tokens, _starttime, _endtime);\r\n        emit lockfunds(_name, _tokens);\r\n        return true;\r\n    }\r\n\r\n    /* Function to release tokens */\r\n\r\n    function releasefunds(string memory _name) public onlyAdmin {\r\n        ProjectTimeLock timelock = ProjectTimeLock(timelockcontractaddress);\r\n        timelock.withdrawltokens(_name);\r\n        emit unlockedfunds(_name);\r\n    }\r\n\r\n    function deposittimelock(uint256 _amount) public childcontract {\r\n        balances[daowallet] = balances[daowallet].add(_amount);\r\n        circulationsupply = circulationsupply.add(_amount);\r\n    }\r\n\r\n    /* Get vesting details of locked tokens. */\r\n\r\n    function getvestingdetails(string memory _name)\r\n        public\r\n        view\r\n        returns (\r\n            uint256,\r\n            uint256,\r\n            uint256,\r\n            address\r\n        )\r\n    {\r\n        ProjectTimeLock timelock = ProjectTimeLock(timelockcontractaddress);\r\n        return timelock.getvestingdetails(_name);\r\n    }\r\n\r\n    /* Fetch balance of user\t*/\r\n\r\n    function balanceOf(address _address) public view returns (uint256) {\r\n        return balances[_address];\r\n    }\r\n\r\n    /* fetch total tokens\t\t*/\r\n\r\n    function totalSupply() public view returns (uint256) {\r\n        return totalarea;\r\n    }\r\n\r\n    /* if conditions for admin purposes.\r\n     */\r\n    modifier onlyAdmin() {\r\n        require(admins[msg.sender]);\r\n        _;\r\n    }\r\n\r\n    modifier childcontract() {\r\n        require(msg.sender == timelockcontractaddress);\r\n        _;\r\n    }\r\n}\r\n\r\n// Timelock contract //\r\n\r\ncontract ProjectTimeLock {\r\n    struct Vestingperiod {\r\n        uint256 totalsupply;\r\n        uint256 starttime;\r\n        uint256 endtime;\r\n        address owneraddress;\r\n    }\r\n\r\n    address public maincontract;\r\n    ProjectContract c;\r\n\r\n    // mapping for vesting stages\r\n\r\n    mapping(string => Vestingperiod) public vestingstages;\r\n\r\n    constructor(address _maincontract) public {\r\n        c = ProjectContract(_maincontract);\r\n        maincontract = _maincontract;\r\n    }\r\n\r\n    function depositaddress(\r\n        string memory name,\r\n        uint256 _tokensupply,\r\n        uint256 _starttime,\r\n        uint256 _endtime\r\n    ) public onlymaincontract returns (bool success) {\r\n        vestingstages[name] = Vestingperiod(\r\n            _tokensupply,\r\n            _starttime,\r\n            _endtime,\r\n            msg.sender\r\n        );\r\n        return true;\r\n    }\r\n\r\n    function withdrawltokens(string memory _name)\r\n        public\r\n        payable\r\n        onlymaincontract\r\n        returns (bool success)\r\n    {\r\n        require(vestingstages[_name].starttime <= block.timestamp);\r\n        uint256 amount = vestingstages[_name].totalsupply;\r\n        vestingstages[_name].totalsupply = 0;\r\n        c.deposittimelock(amount);\r\n        return true;\r\n    }\r\n\r\n    function getvestingdetails(string memory _name)\r\n        public\r\n        view\r\n        returns (\r\n            uint256,\r\n            uint256,\r\n            uint256,\r\n            address\r\n        )\r\n    {\r\n        return (\r\n            vestingstages[_name].totalsupply,\r\n            vestingstages[_name].starttime,\r\n            vestingstages[_name].endtime,\r\n            vestingstages[_name].owneraddress\r\n        );\r\n    }\r\n\r\n    modifier onlymaincontract() {\r\n        require(maincontract == msg.sender);\r\n        _;\r\n    }\r\n}\r\n",
  "sourcePath": "G:/DAOPROPTECH/DAO-Identity-Managment-System/backend/blockchain/contracts/Property.sol",
  "compiler": {
    "name": "solc",
    "version": "0.7.0+commit.a37b7b90.Emscripten.clang"
  },
  "schemaVersion": "2.0.1",
  "updatedAt": "2021-08-29T11:42:46.638Z"
}