{
  "contractName": "ProjectTimeLock",
  "abi": [
    {
      "inputs": [
        {
          "internalType": "address",
          "name": "_maincontract",
          "type": "address"
        }
      ],
      "stateMutability": "nonpayable",
      "type": "constructor"
    },
    {
      "inputs": [],
      "name": "maincontract",
      "outputs": [
        {
          "internalType": "address",
          "name": "",
          "type": "address"
        }
      ],
      "stateMutability": "view",
      "type": "function"
    },
    {
      "inputs": [
        {
          "internalType": "string",
          "name": "",
          "type": "string"
        }
      ],
      "name": "vestingstages",
      "outputs": [
        {
          "internalType": "uint256",
          "name": "totalsupply",
          "type": "uint256"
        },
        {
          "internalType": "uint256",
          "name": "starttime",
          "type": "uint256"
        },
        {
          "internalType": "uint256",
          "name": "endtime",
          "type": "uint256"
        },
        {
          "internalType": "address",
          "name": "owneraddress",
          "type": "address"
        }
      ],
      "stateMutability": "view",
      "type": "function"
    },
    {
      "inputs": [
        {
          "internalType": "string",
          "name": "name",
          "type": "string"
        },
        {
          "internalType": "uint256",
          "name": "_tokensupply",
          "type": "uint256"
        },
        {
          "internalType": "uint256",
          "name": "_starttime",
          "type": "uint256"
        },
        {
          "internalType": "uint256",
          "name": "_endtime",
          "type": "uint256"
        }
      ],
      "name": "depositaddress",
      "outputs": [
        {
          "internalType": "bool",
          "name": "success",
          "type": "bool"
        }
      ],
      "stateMutability": "nonpayable",
      "type": "function"
    },
    {
      "inputs": [
        {
          "internalType": "string",
          "name": "_name",
          "type": "string"
        }
      ],
      "name": "withdrawltokens",
      "outputs": [
        {
          "internalType": "bool",
          "name": "success",
          "type": "bool"
        }
      ],
      "stateMutability": "payable",
      "type": "function"
    },
    {
      "inputs": [
        {
          "internalType": "string",
          "name": "_name",
          "type": "string"
        }
      ],
      "name": "getvestingdetails",
      "outputs": [
        {
          "internalType": "uint256",
          "name": "",
          "type": "uint256"
        },
        {
          "internalType": "uint256",
          "name": "",
          "type": "uint256"
        },
        {
          "internalType": "uint256",
          "name": "",
          "type": "uint256"
        },
        {
          "internalType": "address",
          "name": "",
          "type": "address"
        }
      ],
      "stateMutability": "view",
      "type": "function"
    }
  ],
  "bytecode": "0x608060405234801561001057600080fd5b50d3801561001d57600080fd5b50d2801561002a57600080fd5b50604051610c26380380610c268339818101604052602081101561004d57600080fd5b810190808051906020019092919050505080600160006101000a81548173ffffffffffffffffffffffffffffffffffffffff021916908373ffffffffffffffffffffffffffffffffffffffff160217905550806000806101000a81548173ffffffffffffffffffffffffffffffffffffffff021916908373ffffffffffffffffffffffffffffffffffffffff16021790555050610b37806100ef6000396000f3fe60806040526004361061004a5760003560e01c806335b5b1c61461004f578063592704c5146100aa578063bdb04c79146101cb578063d050f79c1461029c578063db89adf5146103bd575b600080fd5b34801561005b57600080fd5b50d3801561006857600080fd5b50d2801561007557600080fd5b5061007e6104d3565b604051808273ffffffffffffffffffffffffffffffffffffffff16815260200191505060405180910390f35b3480156100b657600080fd5b50d380156100c357600080fd5b50d280156100d057600080fd5b5061018a600480360360208110156100e757600080fd5b810190808035906020019064010000000081111561010457600080fd5b82018360208201111561011657600080fd5b8035906020019184600183028401116401000000008311171561013857600080fd5b91908080601f016020809104026020016040519081016040528093929190818152602001838380828437600081840152601f19601f8201169050808301925050505050505091929192905050506104f7565b604051808581526020018481526020018381526020018273ffffffffffffffffffffffffffffffffffffffff16815260200194505050505060405180910390f35b610284600480360360208110156101e157600080fd5b81019080803590602001906401000000008111156101fe57600080fd5b82018360208201111561021057600080fd5b8035906020019184600183028401116401000000008311171561023257600080fd5b91908080601f016020809104026020016040519081016040528093929190818152602001838380828437600081840152601f19601f8201169050808301925050505050505091929192905050506106e0565b60405180821515815260200191505060405180910390f35b3480156102a857600080fd5b50d380156102b557600080fd5b50d280156102c257600080fd5b5061037c600480360360208110156102d957600080fd5b81019080803590602001906401000000008111156102f657600080fd5b82018360208201111561030857600080fd5b8035906020019184600183028401116401000000008311171561032a57600080fd5b91908080601f016020809104026020016040519081016040528093929190818152602001838380828437600081840152601f19601f82011690508083019250505050505050919291929050505061092d565b604051808581526020018481526020018381526020018273ffffffffffffffffffffffffffffffffffffffff16815260200194505050505060405180910390f35b3480156103c957600080fd5b50d380156103d657600080fd5b50d280156103e357600080fd5b506104bb600480360360808110156103fa57600080fd5b810190808035906020019064010000000081111561041757600080fd5b82018360208201111561042957600080fd5b8035906020019184600183028401116401000000008311171561044b57600080fd5b91908080601f016020809104026020016040519081016040528093929190818152602001838380828437600081840152601f19601f820116905080830192505050505050509192919290803590602001909291908035906020019092919080359060200190929190505050610993565b60405180821515815260200191505060405180910390f35b60008054906101000a900473ffffffffffffffffffffffffffffffffffffffff1681565b6000806000806002856040518082805190602001908083835b602083106105335780518252602082019150602081019050602083039250610510565b6001836020036101000a0380198251168184511680821785525050505050509050019150509081526020016040518091039020600001546002866040518082805190602001908083835b602083106105a0578051825260208201915060208101905060208303925061057d565b6001836020036101000a0380198251168184511680821785525050505050509050019150509081526020016040518091039020600101546002876040518082805190602001908083835b6020831061060d57805182526020820191506020810190506020830392506105ea565b6001836020036101000a0380198251168184511680821785525050505050509050019150509081526020016040518091039020600201546002886040518082805190602001908083835b6020831061067a5780518252602082019150602081019050602083039250610657565b6001836020036101000a038019825116818451168082178552505050505050905001915050908152602001604051809103902060030160009054906101000a900473ffffffffffffffffffffffffffffffffffffffff1693509350935093509193509193565b60003373ffffffffffffffffffffffffffffffffffffffff1660008054906101000a900473ffffffffffffffffffffffffffffffffffffffff1673ffffffffffffffffffffffffffffffffffffffff161461073a57600080fd5b426002836040518082805190602001908083835b60208310610771578051825260208201915060208101905060208303925061074e565b6001836020036101000a03801982511681845116808217855250505050505090500191505090815260200160405180910390206001015411156107b357600080fd5b60006002836040518082805190602001908083835b602083106107eb57805182526020820191506020810190506020830392506107c8565b6001836020036101000a038019825116818451168082178552505050505050905001915050908152602001604051809103902060000154905060006002846040518082805190602001908083835b6020831061085c5780518252602082019150602081019050602083039250610839565b6001836020036101000a038019825116818451168082178552505050505050905001915050908152602001604051809103902060000181905550600160009054906101000a900473ffffffffffffffffffffffffffffffffffffffff1673ffffffffffffffffffffffffffffffffffffffff1663c5aa1377826040518263ffffffff1660e01b815260040180828152602001915050600060405180830381600087803b15801561090b57600080fd5b505af115801561091f573d6000803e3d6000fd5b505050506001915050919050565b6002818051602081018201805184825260208301602085012081835280955050505050506000915090508060000154908060010154908060020154908060030160009054906101000a900473ffffffffffffffffffffffffffffffffffffffff16905084565b60003373ffffffffffffffffffffffffffffffffffffffff1660008054906101000a900473ffffffffffffffffffffffffffffffffffffffff1673ffffffffffffffffffffffffffffffffffffffff16146109ed57600080fd5b60405180608001604052808581526020018481526020018381526020013373ffffffffffffffffffffffffffffffffffffffff168152506002866040518082805190602001908083835b60208310610a5a5780518252602082019150602081019050602083039250610a37565b6001836020036101000a038019825116818451168082178552505050505050905001915050908152602001604051809103902060008201518160000155602082015181600101556040820151816002015560608201518160030160006101000a81548173ffffffffffffffffffffffffffffffffffffffff021916908373ffffffffffffffffffffffffffffffffffffffff1602179055509050506001905094935050505056fea2646970667358221220676f8b0bb6831edf2bbc8b9e7ca6f5762fd5237ec28d0d1935342a91d48c83c264736f6c63430007000033",
  "source": "pragma solidity ^0.7.0;\r\nimport \"@openzeppelin/contracts/math/SafeMath.sol\";\r\n\r\ncontract ProjectContract {\r\n    using SafeMath for uint256;\r\n    uint256 public totalarea;\r\n    uint256 public totaltokens;\r\n    uint256 public circulationsupply;\r\n    string public name;\r\n    string public symbol;\r\n    uint8 public decimals;\r\n\r\n    address public daowallet;\r\n    address public timelockcontractaddress;\r\n\r\n  \r\n    mapping(address => bool) admins;\r\n    mapping(address => uint256) public balances;\r\n\r\n    event Transfer(address indexed from, address indexed to, uint256 value);\r\n    event withdraw(address indexed from, uint256 amount);\r\n    event unlockedfunds(string);\r\n    event lockfunds(string, uint256);\r\n\r\n    constructor(\r\n        uint256 _totalarea,\r\n        string memory _name,\r\n        string memory _symbol,\r\n        uint8 _divisions\r\n    ) public {\r\n        admins[msg.sender] = true;\r\n        decimals = _divisions;\r\n        totalarea = _totalarea * (uint256(10) ** _divisions);\r\n        totaltokens = totalarea;\r\n        circulationsupply = totaltokens;\r\n        name = _name;\r\n        symbol = _symbol;\r\n       \r\n        daowallet = msg.sender;\r\n        balances[daowallet] = circulationsupply;\r\n\r\n        //  Fire up timelock contract\r\n\r\n        timelockcontract();\r\n    }\r\n\r\n    function timelockcontract() internal {\r\n        // sending parent contract address to timelock contract so that functions of timelock contract can only be called by parent contract.\r\n        ProjectTimeLock timelock = new ProjectTimeLock(address(this));\r\n\r\n        // storing timelock contract address in parent contract for documentation purposes.\r\n        timelockcontractaddress = address(timelock);\r\n    }\r\n\r\n    function addAdmin(address _adminAddress) external onlyAdmin {\r\n        admins[_adminAddress] = true;\r\n    }\r\n\r\n    function removeAdmin(address _adminAddress) external onlyAdmin {\r\n        admins[_adminAddress] = false;\r\n    }\r\n\r\n\r\n    /* Transfer tokens from one investor to another (sell process) */\r\n\r\n    function transferFrom(\r\n        address _from,\r\n        address _to,\r\n        uint256 _amount\r\n    ) public onlyAdmin returns (bool) {\r\n        require(_from != address(0), \"ERC20: transfer from the zero address\");\r\n        require(_to != address(0), \"ERC20: transfer to the zero address\");\r\n        require(balances[_from] >= _amount);\r\n        balances[_from] = balances[_from].sub(_amount);\r\n        balances[_to] = balances[_to].add(_amount);\r\n        //   balances[_from] = balances[_from]-amount;\r\n        // balances[_to] = balances[_to]+ amount;\r\n        emit Transfer(_from, _to, _amount);\r\n        return true;\r\n    }\r\n\r\n    /* Function to issue tokens to new investors */\r\n\r\n    function transfer(address _to, uint256 _amount)\r\n        public\r\n        onlyAdmin\r\n        returns (bool)\r\n    {\r\n        //require(_from != address(0), \"ERC20: transfer from the zero address\");\r\n        require(_to != address(0), \"ERC20: transfer to the zero address\");\r\n        require(balances[msg.sender] >= _amount);\r\n        balances[msg.sender] = balances[msg.sender].sub(_amount);\r\n        balances[_to]= balances[_to].add(_amount);\r\n        emit Transfer(msg.sender, _to, _amount);\r\n        return true;\r\n    }\r\n\r\n    /* Liquidate tokens from investors.\t*/\r\n\r\n    function withdrawl(address _from, uint256 _amount) public onlyAdmin {\r\n        require(balances[_from] >= _amount);\r\n        balances[_from] = balances[_from].sub(_amount);\r\n        circulationsupply = circulationsupply.sub(_amount);\r\n        emit withdraw(_from, _amount);\r\n    }\r\n\r\n    /*  Function to lock tokens */\r\n\r\n    function developmentRounds(\r\n        string memory _name,\r\n        uint256 _tokens,\r\n        uint256 _starttime,\r\n        uint256 _endtime\r\n    ) public onlyAdmin returns (bool success) {\r\n        require(_tokens <= circulationsupply);\r\n        ProjectTimeLock timelock = ProjectTimeLock(timelockcontractaddress);\r\n        balances[daowallet] = balances[daowallet].sub(_tokens);\r\n        circulationsupply = circulationsupply.sub(_tokens);\r\n        timelock.depositaddress(_name, _tokens, _starttime, _endtime);\r\n        emit lockfunds(_name, _tokens);\r\n        return true;\r\n    }\r\n\r\n    /* Function to release tokens */\r\n\r\n    function releasefunds(string memory _name) public onlyAdmin {\r\n        ProjectTimeLock timelock = ProjectTimeLock(timelockcontractaddress);\r\n        timelock.withdrawltokens(_name);\r\n        emit unlockedfunds(_name);\r\n    }\r\n\r\n    function deposittimelock(uint256 _amount) public childcontract {\r\n        balances[daowallet] = balances[daowallet].add(_amount);\r\n        circulationsupply = circulationsupply.add(_amount);\r\n    }\r\n\r\n    /* Get vesting details of locked tokens. */\r\n\r\n    function getvestingdetails(string memory _name)\r\n        public\r\n        view\r\n        returns (\r\n            uint256,\r\n            uint256,\r\n            uint256,\r\n            address\r\n        )\r\n    {\r\n        ProjectTimeLock timelock = ProjectTimeLock(timelockcontractaddress);\r\n        return timelock.getvestingdetails(_name);\r\n    }\r\n\r\n    /* Fetch balance of user\t*/\r\n\r\n    function balanceOf(address _address) public view returns (uint256) {\r\n        return balances[_address];\r\n    }\r\n\r\n    /* fetch total tokens\t\t*/\r\n\r\n    function totalSupply() public view returns (uint256) {\r\n        return totalarea;\r\n    }\r\n\r\n    /* if conditions for admin purposes.\r\n     */\r\n    modifier onlyAdmin() {\r\n        require(admins[msg.sender]);\r\n        _;\r\n    }\r\n\r\n    modifier childcontract() {\r\n        require(msg.sender == timelockcontractaddress);\r\n        _;\r\n    }\r\n}\r\n\r\n// Timelock contract //\r\n\r\ncontract ProjectTimeLock {\r\n    struct Vestingperiod {\r\n        uint256 totalsupply;\r\n        uint256 starttime;\r\n        uint256 endtime;\r\n        address owneraddress;\r\n    }\r\n\r\n    address public maincontract;\r\n    ProjectContract c;\r\n\r\n    // mapping for vesting stages\r\n\r\n    mapping(string => Vestingperiod) public vestingstages;\r\n\r\n    constructor(address _maincontract) public {\r\n        c = ProjectContract(_maincontract);\r\n        maincontract = _maincontract;\r\n    }\r\n\r\n    function depositaddress(\r\n        string memory name,\r\n        uint256 _tokensupply,\r\n        uint256 _starttime,\r\n        uint256 _endtime\r\n    ) public onlymaincontract returns (bool success) {\r\n        vestingstages[name] = Vestingperiod(\r\n            _tokensupply,\r\n            _starttime,\r\n            _endtime,\r\n            msg.sender\r\n        );\r\n        return true;\r\n    }\r\n\r\n    function withdrawltokens(string memory _name)\r\n        public\r\n        payable\r\n        onlymaincontract\r\n        returns (bool success)\r\n    {\r\n        require(vestingstages[_name].starttime <= block.timestamp);\r\n        uint256 amount = vestingstages[_name].totalsupply;\r\n        vestingstages[_name].totalsupply = 0;\r\n        c.deposittimelock(amount);\r\n        return true;\r\n    }\r\n\r\n    function getvestingdetails(string memory _name)\r\n        public\r\n        view\r\n        returns (\r\n            uint256,\r\n            uint256,\r\n            uint256,\r\n            address\r\n        )\r\n    {\r\n        return (\r\n            vestingstages[_name].totalsupply,\r\n            vestingstages[_name].starttime,\r\n            vestingstages[_name].endtime,\r\n            vestingstages[_name].owneraddress\r\n        );\r\n    }\r\n\r\n    modifier onlymaincontract() {\r\n        require(maincontract == msg.sender);\r\n        _;\r\n    }\r\n}\r\n",
  "sourcePath": "G:/DAOPROPTECH/DAO-Identity-Managment-System/backend/blockchain/contracts/Property.sol",
  "compiler": {
    "name": "solc",
    "version": "0.7.0+commit.a37b7b90.Emscripten.clang"
  },
  "schemaVersion": "2.0.1",
  "updatedAt": "2021-08-29T11:13:25.020Z"
}